{
  "_format": "hh-sol-artifact-1",
  "contractName": "LaunchpadContract",
  "sourceName": "contracts/Launchpad.sol",
  "testnetAddress": "0x9adA84b0D70F689e668e1906Bd7584907bA9d65c",
  "abi": [
    {
      "inputs": [],
      "stateMutability": "nonpayable",
      "type": "constructor"
    },
    {
      "inputs": [
        {
          "internalType": "address",
          "name": "target",
          "type": "address"
        }
      ],
      "name": "AddressEmptyCode",
      "type": "error"
    },
    {
      "inputs": [
        {
          "internalType": "address",
          "name": "implementation",
          "type": "address"
        }
      ],
      "name": "ERC1967InvalidImplementation",
      "type": "error"
    },
    {
      "inputs": [],
      "name": "ERC1967NonPayable",
      "type": "error"
    },
    {
      "inputs": [],
      "name": "EnforcedPause",
      "type": "error"
    },
    {
      "inputs": [],
      "name": "ExpectedPause",
      "type": "error"
    },
    {
      "inputs": [],
      "name": "FailedInnerCall",
      "type": "error"
    },
    {
      "inputs": [],
      "name": "InvalidInitialization",
      "type": "error"
    },
    {
      "inputs": [],
      "name": "NotInitializing",
      "type": "error"
    },
    {
      "inputs": [
        {
          "internalType": "address",
          "name": "owner",
          "type": "address"
        }
      ],
      "name": "OwnableInvalidOwner",
      "type": "error"
    },
    {
      "inputs": [
        {
          "internalType": "address",
          "name": "account",
          "type": "address"
        }
      ],
      "name": "OwnableUnauthorizedAccount",
      "type": "error"
    },
    {
      "inputs": [],
      "name": "UUPSUnauthorizedCallContext",
      "type": "error"
    },
    {
      "inputs": [
        {
          "internalType": "bytes32",
          "name": "slot",
          "type": "bytes32"
        }
      ],
      "name": "UUPSUnsupportedProxiableUUID",
      "type": "error"
    },
    {
      "anonymous": false,
      "inputs": [
        {
          "indexed": false,
          "internalType": "uint64",
          "name": "version",
          "type": "uint64"
        }
      ],
      "name": "Initialized",
      "type": "event"
    },
    {
      "anonymous": false,
      "inputs": [
        {
          "indexed": false,
          "internalType": "uint256",
          "name": "oldFee",
          "type": "uint256"
        },
        {
          "indexed": false,
          "internalType": "uint256",
          "name": "newFee",
          "type": "uint256"
        }
      ],
      "name": "LaunchFeeSet",
      "type": "event"
    },
    {
      "anonymous": false,
      "inputs": [
        {
          "indexed": false,
          "internalType": "address",
          "name": "token",
          "type": "address"
        }
      ],
      "name": "LaunchPending",
      "type": "event"
    },
    {
      "anonymous": false,
      "inputs": [
        {
          "indexed": true,
          "internalType": "address",
          "name": "oldLauncher",
          "type": "address"
        },
        {
          "indexed": true,
          "internalType": "address",
          "name": "newLauncher",
          "type": "address"
        }
      ],
      "name": "LauncherChanged",
      "type": "event"
    },
    {
      "anonymous": false,
      "inputs": [
        {
          "indexed": false,
          "internalType": "uint256",
          "name": "oldAmount",
          "type": "uint256"
        },
        {
          "indexed": false,
          "internalType": "uint256",
          "name": "newAmount",
          "type": "uint256"
        }
      ],
      "name": "MaxPurchaseAmountSet",
      "type": "event"
    },
    {
      "anonymous": false,
      "inputs": [
        {
          "indexed": false,
          "internalType": "uint256",
          "name": "oldFee",
          "type": "uint256"
        },
        {
          "indexed": false,
          "internalType": "uint256",
          "name": "newFee",
          "type": "uint256"
        }
      ],
      "name": "MinTxFeeSet",
      "type": "event"
    },
    {
      "anonymous": false,
      "inputs": [
        {
          "indexed": false,
          "internalType": "uint256",
          "name": "oldFee",
          "type": "uint256"
        },
        {
          "indexed": false,
          "internalType": "uint256",
          "name": "newFee",
          "type": "uint256"
        }
      ],
      "name": "MintFeeSet",
      "type": "event"
    },
    {
      "anonymous": false,
      "inputs": [
        {
          "indexed": true,
          "internalType": "address",
          "name": "oldOperator",
          "type": "address"
        },
        {
          "indexed": true,
          "internalType": "address",
          "name": "newOperator",
          "type": "address"
        }
      ],
      "name": "OperatorChanged",
      "type": "event"
    },
    {
      "anonymous": false,
      "inputs": [
        {
          "indexed": true,
          "internalType": "address",
          "name": "previousOwner",
          "type": "address"
        },
        {
          "indexed": true,
          "internalType": "address",
          "name": "newOwner",
          "type": "address"
        }
      ],
      "name": "OwnershipTransferred",
      "type": "event"
    },
    {
      "anonymous": false,
      "inputs": [
        {
          "indexed": false,
          "internalType": "address",
          "name": "account",
          "type": "address"
        }
      ],
      "name": "Paused",
      "type": "event"
    },
    {
      "anonymous": false,
      "inputs": [
        {
          "indexed": false,
          "internalType": "uint256",
          "name": "oldFee",
          "type": "uint256"
        },
        {
          "indexed": false,
          "internalType": "uint256",
          "name": "newFee",
          "type": "uint256"
        }
      ],
      "name": "PurchaseFeeSet",
      "type": "event"
    },
    {
      "anonymous": false,
      "inputs": [
        {
          "indexed": false,
          "internalType": "uint256",
          "name": "oldFee",
          "type": "uint256"
        },
        {
          "indexed": false,
          "internalType": "uint256",
          "name": "newFee",
          "type": "uint256"
        }
      ],
      "name": "SaleFeeSet",
      "type": "event"
    },
    {
      "anonymous": false,
      "inputs": [
        {
          "indexed": false,
          "internalType": "address",
          "name": "tokenAddress",
          "type": "address"
        },
        {
          "indexed": false,
          "internalType": "uint256",
          "name": "tokenIndex",
          "type": "uint256"
        },
        {
          "indexed": false,
          "internalType": "address",
          "name": "creator",
          "type": "address"
        }
      ],
      "name": "TokenCreate",
      "type": "event"
    },
    {
      "anonymous": false,
      "inputs": [
        {
          "indexed": true,
          "internalType": "address",
          "name": "token",
          "type": "address"
        }
      ],
      "name": "TokenLaunched",
      "type": "event"
    },
    {
      "anonymous": false,
      "inputs": [
        {
          "indexed": true,
          "internalType": "address",
          "name": "token",
          "type": "address"
        },
        {
          "indexed": true,
          "internalType": "address",
          "name": "buyer",
          "type": "address"
        },
        {
          "indexed": false,
          "internalType": "uint256",
          "name": "trxAmount",
          "type": "uint256"
        },
        {
          "indexed": false,
          "internalType": "uint256",
          "name": "fee",
          "type": "uint256"
        },
        {
          "indexed": false,
          "internalType": "uint256",
          "name": "tokenAmount",
          "type": "uint256"
        },
        {
          "indexed": false,
          "internalType": "uint256",
          "name": "tokenReserve",
          "type": "uint256"
        }
      ],
      "name": "TokenPurchased",
      "type": "event"
    },
    {
      "anonymous": false,
      "inputs": [
        {
          "indexed": true,
          "internalType": "address",
          "name": "token",
          "type": "address"
        },
        {
          "indexed": true,
          "internalType": "address",
          "name": "seller",
          "type": "address"
        },
        {
          "indexed": false,
          "internalType": "uint256",
          "name": "trxAmount",
          "type": "uint256"
        },
        {
          "indexed": false,
          "internalType": "uint256",
          "name": "fee",
          "type": "uint256"
        },
        {
          "indexed": false,
          "internalType": "uint256",
          "name": "tokenAmount",
          "type": "uint256"
        }
      ],
      "name": "TokenSold",
      "type": "event"
    },
    {
      "anonymous": false,
      "inputs": [
        {
          "indexed": false,
          "internalType": "address",
          "name": "account",
          "type": "address"
        }
      ],
      "name": "Unpaused",
      "type": "event"
    },
    {
      "anonymous": false,
      "inputs": [
        {
          "indexed": true,
          "internalType": "address",
          "name": "implementation",
          "type": "address"
        }
      ],
      "name": "Upgraded",
      "type": "event"
    },
    {
      "anonymous": false,
      "inputs": [
        {
          "indexed": true,
          "internalType": "address",
          "name": "oldRouter",
          "type": "address"
        },
        {
          "indexed": true,
          "internalType": "address",
          "name": "newRouter",
          "type": "address"
        }
      ],
      "name": "V2RouterChanged",
      "type": "event"
    },
    {
      "anonymous": false,
      "inputs": [
        {
          "indexed": true,
          "internalType": "address",
          "name": "oldVault",
          "type": "address"
        },
        {
          "indexed": true,
          "internalType": "address",
          "name": "newVault",
          "type": "address"
        }
      ],
      "name": "VaultChanged",
      "type": "event"
    },
    {
      "inputs": [],
      "name": "LAUNCH_EDU_RESERVE",
      "outputs": [
        {
          "internalType": "uint256",
          "name": "",
          "type": "uint256"
        }
      ],
      "stateMutability": "view",
      "type": "function"
    },
    {
      "inputs": [],
      "name": "LAUNCH_THRESHOLD",
      "outputs": [
        {
          "internalType": "uint256",
          "name": "",
          "type": "uint256"
        }
      ],
      "stateMutability": "view",
      "type": "function"
    },
    {
      "inputs": [],
      "name": "TOKEN_SUPPLY",
      "outputs": [
        {
          "internalType": "uint256",
          "name": "",
          "type": "uint256"
        }
      ],
      "stateMutability": "view",
      "type": "function"
    },
    {
      "inputs": [],
      "name": "TOTAL_SALE",
      "outputs": [
        {
          "internalType": "uint256",
          "name": "",
          "type": "uint256"
        }
      ],
      "stateMutability": "view",
      "type": "function"
    },
    {
      "inputs": [],
      "name": "UPGRADE_INTERFACE_VERSION",
      "outputs": [
        {
          "internalType": "string",
          "name": "",
          "type": "string"
        }
      ],
      "stateMutability": "view",
      "type": "function"
    },
    {
      "inputs": [],
      "name": "VIRTUAL_EDU_RESERVE_AMOUNT",
      "outputs": [
        {
          "internalType": "uint256",
          "name": "",
          "type": "uint256"
        }
      ],
      "stateMutability": "view",
      "type": "function"
    },
    {
      "inputs": [],
      "name": "VIRTUAL_TOKEN_RESERVE_AMOUNT",
      "outputs": [
        {
          "internalType": "uint256",
          "name": "",
          "type": "uint256"
        }
      ],
      "stateMutability": "view",
      "type": "function"
    },
    {
      "inputs": [
        {
          "internalType": "string",
          "name": "name",
          "type": "string"
        },
        {
          "internalType": "string",
          "name": "symbol",
          "type": "string"
        }
      ],
      "name": "createAndInitPurchase",
      "outputs": [],
      "stateMutability": "payable",
      "type": "function"
    },
    {
      "inputs": [
        {
          "internalType": "address",
          "name": "_creator",
          "type": "address"
        }
      ],
      "name": "creatorTokenCount",
      "outputs": [
        {
          "internalType": "uint256",
          "name": "",
          "type": "uint256"
        }
      ],
      "stateMutability": "view",
      "type": "function"
    },
    {
      "inputs": [
        {
          "internalType": "address",
          "name": "",
          "type": "address"
        },
        {
          "internalType": "uint256",
          "name": "",
          "type": "uint256"
        }
      ],
      "name": "creatorTokens",
      "outputs": [
        {
          "internalType": "address",
          "name": "",
          "type": "address"
        }
      ],
      "stateMutability": "view",
      "type": "function"
    },
    {
      "inputs": [],
      "name": "deadAddress",
      "outputs": [
        {
          "internalType": "address",
          "name": "",
          "type": "address"
        }
      ],
      "stateMutability": "view",
      "type": "function"
    },
    {
      "inputs": [
        {
          "internalType": "address",
          "name": "token",
          "type": "address"
        }
      ],
      "name": "getPrice",
      "outputs": [
        {
          "internalType": "uint256",
          "name": "",
          "type": "uint256"
        }
      ],
      "stateMutability": "view",
      "type": "function"
    },
    {
      "inputs": [
        {
          "internalType": "address",
          "name": "token",
          "type": "address"
        },
        {
          "internalType": "uint256",
          "name": "trxAmount",
          "type": "uint256"
        }
      ],
      "name": "getTokenAmountByPurchase",
      "outputs": [
        {
          "internalType": "uint256",
          "name": "tokenAmount",
          "type": "uint256"
        }
      ],
      "stateMutability": "view",
      "type": "function"
    },
    {
      "inputs": [
        {
          "internalType": "address",
          "name": "token",
          "type": "address"
        },
        {
          "internalType": "uint256",
          "name": "tokenAmount",
          "type": "uint256"
        }
      ],
      "name": "getTrxAmountBySale",
      "outputs": [
        {
          "internalType": "uint256",
          "name": "trxAmount",
          "type": "uint256"
        }
      ],
      "stateMutability": "view",
      "type": "function"
    },
    {
      "inputs": [
        {
          "internalType": "string",
          "name": "name",
          "type": "string"
        },
        {
          "internalType": "string",
          "name": "symbol",
          "type": "string"
        }
      ],
      "name": "guessNewTokenAddress",
      "outputs": [
        {
          "internalType": "address",
          "name": "",
          "type": "address"
        }
      ],
      "stateMutability": "view",
      "type": "function"
    },
    {
      "inputs": [
        {
          "internalType": "address",
          "name": "_vault",
          "type": "address"
        },
        {
          "internalType": "uint256",
          "name": "_launchFee",
          "type": "uint256"
        },
        {
          "internalType": "uint256",
          "name": "_salefee",
          "type": "uint256"
        },
        {
          "internalType": "uint256",
          "name": "_purchasefee",
          "type": "uint256"
        }
      ],
      "name": "initialize",
      "outputs": [],
      "stateMutability": "nonpayable",
      "type": "function"
    },
    {
      "inputs": [],
      "name": "launchFee",
      "outputs": [
        {
          "internalType": "uint256",
          "name": "",
          "type": "uint256"
        }
      ],
      "stateMutability": "view",
      "type": "function"
    },
    {
      "inputs": [
        {
          "internalType": "address",
          "name": "token",
          "type": "address"
        },
        {
          "internalType": "address",
          "name": "v2Router",
          "type": "address"
        }
      ],
      "name": "launchToDEX",
      "outputs": [],
      "stateMutability": "nonpayable",
      "type": "function"
    },
    {
      "inputs": [],
      "name": "launcher",
      "outputs": [
        {
          "internalType": "address",
          "name": "",
          "type": "address"
        }
      ],
      "stateMutability": "view",
      "type": "function"
    },
    {
      "inputs": [],
      "name": "maxPurchaseAmount",
      "outputs": [
        {
          "internalType": "uint256",
          "name": "",
          "type": "uint256"
        }
      ],
      "stateMutability": "view",
      "type": "function"
    },
    {
      "inputs": [],
      "name": "minTxFee",
      "outputs": [
        {
          "internalType": "uint256",
          "name": "",
          "type": "uint256"
        }
      ],
      "stateMutability": "view",
      "type": "function"
    },
    {
      "inputs": [],
      "name": "mintFee",
      "outputs": [
        {
          "internalType": "uint256",
          "name": "",
          "type": "uint256"
        }
      ],
      "stateMutability": "view",
      "type": "function"
    },
    {
      "inputs": [],
      "name": "operator",
      "outputs": [
        {
          "internalType": "address",
          "name": "",
          "type": "address"
        }
      ],
      "stateMutability": "view",
      "type": "function"
    },
    {
      "inputs": [],
      "name": "owner",
      "outputs": [
        {
          "internalType": "address",
          "name": "",
          "type": "address"
        }
      ],
      "stateMutability": "view",
      "type": "function"
    },
    {
      "inputs": [],
      "name": "pause",
      "outputs": [],
      "stateMutability": "nonpayable",
      "type": "function"
    },
    {
      "inputs": [],
      "name": "paused",
      "outputs": [
        {
          "internalType": "bool",
          "name": "",
          "type": "bool"
        }
      ],
      "stateMutability": "view",
      "type": "function"
    },
    {
      "inputs": [],
      "name": "proxiableUUID",
      "outputs": [
        {
          "internalType": "bytes32",
          "name": "",
          "type": "bytes32"
        }
      ],
      "stateMutability": "view",
      "type": "function"
    },
    {
      "inputs": [],
      "name": "purchaseFee",
      "outputs": [
        {
          "internalType": "uint256",
          "name": "",
          "type": "uint256"
        }
      ],
      "stateMutability": "view",
      "type": "function"
    },
    {
      "inputs": [
        {
          "internalType": "address",
          "name": "token",
          "type": "address"
        },
        {
          "internalType": "uint256",
          "name": "AmountMin",
          "type": "uint256"
        }
      ],
      "name": "purchaseToken",
      "outputs": [],
      "stateMutability": "payable",
      "type": "function"
    },
    {
      "inputs": [],
      "name": "renounceOwnership",
      "outputs": [],
      "stateMutability": "nonpayable",
      "type": "function"
    },
    {
      "inputs": [],
      "name": "saleFee",
      "outputs": [
        {
          "internalType": "uint256",
          "name": "",
          "type": "uint256"
        }
      ],
      "stateMutability": "view",
      "type": "function"
    },
    {
      "inputs": [
        {
          "internalType": "address",
          "name": "token",
          "type": "address"
        },
        {
          "internalType": "uint256",
          "name": "tokenAmount",
          "type": "uint256"
        },
        {
          "internalType": "uint256",
          "name": "AmountMin",
          "type": "uint256"
        }
      ],
      "name": "saleToken",
      "outputs": [],
      "stateMutability": "nonpayable",
      "type": "function"
    },
    {
      "inputs": [
        {
          "internalType": "uint256",
          "name": "newFee",
          "type": "uint256"
        }
      ],
      "name": "setLaunchFee",
      "outputs": [],
      "stateMutability": "nonpayable",
      "type": "function"
    },
    {
      "inputs": [
        {
          "internalType": "address",
          "name": "newLauncher",
          "type": "address"
        }
      ],
      "name": "setLauncher",
      "outputs": [],
      "stateMutability": "nonpayable",
      "type": "function"
    },
    {
      "inputs": [
        {
          "internalType": "uint256",
          "name": "newAmount",
          "type": "uint256"
        }
      ],
      "name": "setMaxPurchaseAmount",
      "outputs": [],
      "stateMutability": "nonpayable",
      "type": "function"
    },
    {
      "inputs": [
        {
          "internalType": "uint256",
          "name": "newFee",
          "type": "uint256"
        }
      ],
      "name": "setMinTxFee",
      "outputs": [],
      "stateMutability": "nonpayable",
      "type": "function"
    },
    {
      "inputs": [
        {
          "internalType": "uint256",
          "name": "newFee",
          "type": "uint256"
        }
      ],
      "name": "setMintFee",
      "outputs": [],
      "stateMutability": "nonpayable",
      "type": "function"
    },
    {
      "inputs": [
        {
          "internalType": "address",
          "name": "newOperator",
          "type": "address"
        }
      ],
      "name": "setOperator",
      "outputs": [],
      "stateMutability": "nonpayable",
      "type": "function"
    },
    {
      "inputs": [
        {
          "internalType": "uint256",
          "name": "newFee",
          "type": "uint256"
        }
      ],
      "name": "setPurchaseFee",
      "outputs": [],
      "stateMutability": "nonpayable",
      "type": "function"
    },
    {
      "inputs": [
        {
          "internalType": "uint256",
          "name": "newFee",
          "type": "uint256"
        }
      ],
      "name": "setSaleFee",
      "outputs": [],
      "stateMutability": "nonpayable",
      "type": "function"
    },
    {
      "inputs": [
        {
          "internalType": "address",
          "name": "newVault",
          "type": "address"
        }
      ],
      "name": "setVault",
      "outputs": [],
      "stateMutability": "nonpayable",
      "type": "function"
    },
    {
      "inputs": [
        {
          "internalType": "uint256",
          "name": "",
          "type": "uint256"
        }
      ],
      "name": "tokenAddress",
      "outputs": [
        {
          "internalType": "address",
          "name": "",
          "type": "address"
        }
      ],
      "stateMutability": "view",
      "type": "function"
    },
    {
      "inputs": [],
      "name": "tokenCount",
      "outputs": [
        {
          "internalType": "uint256",
          "name": "",
          "type": "uint256"
        }
      ],
      "stateMutability": "view",
      "type": "function"
    },
    {
      "inputs": [
        {
          "internalType": "address",
          "name": "",
          "type": "address"
        }
      ],
      "name": "tokenCreator",
      "outputs": [
        {
          "internalType": "address",
          "name": "",
          "type": "address"
        }
      ],
      "stateMutability": "view",
      "type": "function"
    },
    {
      "inputs": [
        {
          "internalType": "address",
          "name": "_creator",
          "type": "address"
        }
      ],
      "name": "tokensByCreator",
      "outputs": [
        {
          "internalType": "address[]",
          "name": "",
          "type": "address[]"
        }
      ],
      "stateMutability": "view",
      "type": "function"
    },
    {
      "inputs": [
        {
          "internalType": "address",
          "name": "newOwner",
          "type": "address"
        }
      ],
      "name": "transferOwnership",
      "outputs": [],
      "stateMutability": "nonpayable",
      "type": "function"
    },
    {
      "inputs": [],
      "name": "unpause",
      "outputs": [],
      "stateMutability": "nonpayable",
      "type": "function"
    },
    {
      "inputs": [
        {
          "internalType": "address",
          "name": "newImplementation",
          "type": "address"
        },
        {
          "internalType": "bytes",
          "name": "data",
          "type": "bytes"
        }
      ],
      "name": "upgradeToAndCall",
      "outputs": [],
      "stateMutability": "payable",
      "type": "function"
    },
    {
      "inputs": [],
      "name": "vault",
      "outputs": [
        {
          "internalType": "address",
          "name": "",
          "type": "address"
        }
      ],
      "stateMutability": "view",
      "type": "function"
    },
    {
      "inputs": [
        {
          "internalType": "address",
          "name": "",
          "type": "address"
        }
      ],
      "name": "virtualPools",
      "outputs": [
        {
          "internalType": "uint256",
          "name": "EDUReserve",
          "type": "uint256"
        },
        {
          "internalType": "uint256",
          "name": "TokenReserve",
          "type": "uint256"
        },
        {
          "internalType": "bool",
          "name": "launched",
          "type": "bool"
        }
      ],
      "stateMutability": "view",
      "type": "function"
    },
    {
      "stateMutability": "payable",
      "type": "receive"
    }
  ],
  "bytecode": "0x60a06040523060805234801561001457600080fd5b507ff0c57e16840df040f15088dc2f81fe391c3923bec73e23a9662efc9c229c6a00805468010000000000000000810460ff1615906001600160401b031660008115801561005f5750825b90506000826001600160401b0316600114801561007b5750303b155b905081158015610089575080155b156100a75760405163f92ee8a960e01b815260040160405180910390fd5b84546001600160401b031916600117855583156100d557845460ff60401b1916680100000000000000001785555b831561011b57845460ff60401b19168555604051600181527fc7f505b2f371ae2175ee4913f4499e1f2633a7b5936321eed1cdaeb6115181d29060200160405180910390a15b505050505060805161395861014960003960008181611f6d01528181611f9601526120dc01526139586000f3fe60806040526004361061028c5760003560e01c80636817031b1161015a578063b152f6cf116100c1578063f016b8651161007a578063f016b865146107e6578063f2fde38b14610804578063f4c094c814610824578063f952fcad14610844578063fbfa77cf1461085a578063fe29b4e81461087a57600080fd5b8063b152f6cf14610732578063b3ab15fb14610750578063bdcafc5514610770578063cf3cf57314610790578063d19aa2b9146107a6578063eddd0d9c146107c657600080fd5b8063910cffe011610113578063910cffe01461064e578063989df3901461066c5780639e6b26ba146106885780639f181b5e146106be578063a5fa12f0146106d4578063ad3cb1cc146106f457600080fd5b80636817031b146105875780636a5f456c146105a7578063715018a6146105c75780637a1ac61e146105dc5780638456cb59146105fc5780638da5cb5b1461061157600080fd5b806327c8f835116101fe5780634f1ef286116101b75780634f1ef286146104ef578063516cf3871461029857806352d1902d14610502578063570ca735146105175780635c975abb146105375780636402cdc31461056757600080fd5b806327c8f835146104475780632a5c0b6e146104675780632f70d762146104875780633f4ba83a1461049a57806341976e09146104af578063444ff9b4146104cf57600080fd5b80631cc2c911116102505780631cc2c911146103425780631d32c2da146103575780631e105689146103755780631e2281921461039557806320160b07146103f157806323774af21461041157600080fd5b806309197a811461029857806313966db5146102c857806314b5e981146102de57806316eebd1e146102f4578063178021e31461032c57600080fd5b3661029357005b600080fd5b3480156102a457600080fd5b506102b5683635c9adc5dea0000081565b6040519081526020015b60405180910390f35b3480156102d457600080fd5b506102b560055481565b3480156102ea57600080fd5b506102b560075481565b34801561030057600080fd5b50600154610314906001600160a01b031681565b6040516001600160a01b0390911681526020016102bf565b34801561033857600080fd5b506102b560085481565b610355610350366004612497565b610890565b005b34801561036357600080fd5b506102b569021e19e0c9bab240000081565b34801561038157600080fd5b506102b5610390366004612497565b610c7a565b3480156103a157600080fd5b506103d46103b03660046124c1565b600d6020526000908152604090208054600182015460029092015490919060ff1683565b6040805193845260208401929092521515908201526060016102bf565b3480156103fd57600080fd5b5061035561040c3660046124dc565b610d02565b34801561041d57600080fd5b5061031461042c3660046124c1565b600c602052600090815260409020546001600160a01b031681565b34801561045357600080fd5b50600054610314906001600160a01b031681565b34801561047357600080fd5b506102b5610482366004612497565b610d50565b6103556104953660046125a5565b610da8565b3480156104a657600080fd5b50610355610fe0565b3480156104bb57600080fd5b506102b56104ca3660046124c1565b610ff2565b3480156104db57600080fd5b506103556104ea36600461260e565b61107b565b6103556104fd366004612641565b61136d565b34801561050e57600080fd5b506102b561138c565b34801561052357600080fd5b50600654610314906001600160a01b031681565b34801561054357600080fd5b506000805160206139038339815191525460ff1660405190151581526020016102bf565b34801561057357600080fd5b506103556105823660046124dc565b6113a9565b34801561059357600080fd5b506103556105a23660046124c1565b611441565b3480156105b357600080fd5b506103146105c2366004612497565b6114e9565b3480156105d357600080fd5b5061035561156f565b3480156105e857600080fd5b506103556105f7366004612699565b611581565b34801561060857600080fd5b506103556116f2565b34801561061d57600080fd5b507f9016d09d72d40fdae2fd8ceac6b6234c7706214fd39c1cd1e609a0528c199300546001600160a01b0316610314565b34801561065a57600080fd5b506102b569be951906eba2aa80000081565b34801561067857600080fd5b506102b5670de0b6b3a764000081565b34801561069457600080fd5b506103146106a33660046124dc565b600b602052600090815260409020546001600160a01b031681565b3480156106ca57600080fd5b506102b5600a5481565b3480156106e057600080fd5b506103556106ef3660046124dc565b611702565b34801561070057600080fd5b50610725604051806040016040528060058152602001640352e302e360dc1b81525081565b6040516102bf919061271c565b34801561073e57600080fd5b506102b569d3c21bcecceda100000081565b34801561075c57600080fd5b5061035561076b3660046124c1565b611748565b34801561077c57600080fd5b5061035561078b3660046124dc565b6117f8565b34801561079c57600080fd5b506102b560025481565b3480156107b257600080fd5b506103556107c1366004612699565b611890565b3480156107d257600080fd5b506103556107e13660046124dc565b611c87565b3480156107f257600080fd5b506102b569010f0cf064dd5920000081565b34801561081057600080fd5b5061035561081f3660046124c1565b611ccd565b34801561083057600080fd5b5061035561083f3660046124c1565b611d0b565b34801561085057600080fd5b506102b560035481565b34801561086657600080fd5b50600954610314906001600160a01b031681565b34801561088657600080fd5b506102b560045481565b610898611dbb565b6000341180156108aa57506003543411155b6108fb5760405162461bcd60e51b815260206004820152601760248201527f496e76616c696420707572636861736520616d6f756e7400000000000000000060448201526064015b60405180910390fd5b6001600160a01b0382166000908152600d6020526040902080546109595760405162461bcd60e51b8152602060048201526015602482015274151bdad95b881b9bdd081a5b9a5d1a585b1a5e9959605a1b60448201526064016108f2565b60006109658434610c7a565b9050828110156109ad5760405162461bcd60e51b815260206004820152601360248201527229b634b83830b3b290383937ba32b1ba34b7b760691b60448201526064016108f2565b6000806109bc34600754611dec565b91509150816109dd5760405162461bcd60e51b81526004016108f29061272f565b6109e981612710611e37565b909250905081610a0b5760405162461bcd60e51b81526004016108f29061272f565b6000610a173483611e6a565b909350905082610a695760405162461bcd60e51b815260206004820181905260248201527f54525820616d6f756e742063616c63756c6174696f6e20756e646572666c6f7760448201526064016108f2565b8454610a759082611e8c565b8655925082610ac65760405162461bcd60e51b815260206004820152601b60248201527f545258207265736572766520757064617465206f766572666c6f77000000000060448201526064016108f2565b610ad4856001015485611e6a565b6001870155925082610b285760405162461bcd60e51b815260206004820152601e60248201527f546f6b656e20726573657276652075706461746520756e646572666c6f77000060448201526064016108f2565b60405163a9059cbb60e01b8152336004820152602481018590526001600160a01b0388169063a9059cbb906044016020604051808303816000875af1158015610b75573d6000803e3d6000fd5b505050506040513d601f19601f82011682018060405250810190610b999190612766565b610bdd5760405162461bcd60e51b8152602060048201526015602482015274151bdad95b881d1c985b9cd9995c8819985a5b1959605a1b60448201526064016108f2565b6009546040516001600160a01b039091169083156108fc029084906000818181858888f19350505050158015610c17573d6000803e3d6000fd5b506001850154604080518381526020810185905280820187905260608101929092525133916001600160a01b038a16917f63abb62535c21a5d221cf9c15994097b8880cc986d82faf80f57382b998dbae59181900360800190a350505050505050565b6001600160a01b0382166000908152600d60205260408120600181015482908190610ca6908690611dec565b9150915081610cc75760405162461bcd60e51b81526004016108f290612788565b610cd5818460000154611e37565b909250905081610cf75760405162461bcd60e51b81526004016108f290612788565b925050505b92915050565b610d0a611ea7565b600480549082905560408051828152602081018490527f091f43688ad4f42d7f02fb81c7e28b693ca4d5d825c27572437bc308cc46aba291015b60405180910390a15050565b6001600160a01b0382166000908152600d60205260408120805482908190610d79908690611dec565b9150915081610d9a5760405162461bcd60e51b81526004016108f290612788565b610cd5818460010154611e37565b610db0611dbb565b683635c9adc5dea00000341015610e095760405162461bcd60e51b815260206004820152601760248201527f496e73756666696369656e74206c61756e63682066656500000000000000000060448201526064016108f2565b6000604051610e179061246e565b604051809103906000f080158015610e33573d6000803e3d6000fd5b5060405163266c45bb60e11b81529091506001600160a01b03821690634cd88b7690610e6590869086906004016127b6565b600060405180830381600087803b158015610e7f57600080fd5b505af1158015610e93573d6000803e3d6000fd5b505060408051606081018252670de0b6b3a76400008152683635c9adc5dea00000602080830191825260008385018181526001600160a01b038916808352600d84528683209551865593516001860155516002909401805494151560ff1990951694909417909355600a80548452600b825284842080546001600160a01b03199081168517909155928452600c90915292822080549091163317905581548594509250610f3f836127fa565b91905055507f1ff0a01c8968e3551472812164f233abb579247de887db8cbb18281c149bee7a816001600a54610f759190612813565b604080516001600160a01b0390931683526020830191909152339082015260600160405180910390a16040516001600160a01b03821681527fff274cd97aba8af276149429fbc7ea387e14da22dcd51779c691af908f4feb649060200160405180910390a150505050565b610fe8611ea7565b610ff0611f02565b565b6001600160a01b0381166000908152600d6020526040812080548290819061102290670de0b6b3a7640000611dec565b91509150816110435760405162461bcd60e51b81526004016108f290612788565b611051818460010154611e37565b9092509050816110735760405162461bcd60e51b81526004016108f290612788565b949350505050565b611083611dbb565b6001546001600160a01b031633146110dd5760405162461bcd60e51b815260206004820152601f60248201527f4f6e6c79206c61756e636865722063616e206c61756e636820746f6b656e730060448201526064016108f2565b6001600160a01b0382166000908152600d60205260409020600281015460ff16156111435760405162461bcd60e51b8152602060048201526016602482015275151bdad95b88185b1c9958591e481b185d5b98da195960521b60448201526064016108f2565b805469021e19e0c9bab240000011156111a85760405162461bcd60e51b815260206004820152602160248201527f496e73756666696369656e74206c697175696469747920666f72206c61756e636044820152600d60fb1b60648201526084016108f2565b69010f0cf064dd5920000060006111bf8583610c7a565b60405163095ea7b360e01b81526001600160a01b038681166004830152602482018390529192509086169063095ea7b3906044016020604051808303816000875af1158015611212573d6000803e3d6000fd5b505050506040513d601f19601f820116820180604052508101906112369190612766565b61127a5760405162461bcd60e51b8152602060048201526015602482015274151bdad95b88185c1c1c9bdd985b0819985a5b1959605a1b60448201526064016108f2565b604051635a47ddc360e01b81526001600160a01b03868116600483015260006024830181905260448301819052606483018490526084830185905260a4830181905260c48301523060e4830152600019610104830152851690635a47ddc390610124016060604051808303816000875af11580156112fc573d6000803e3d6000fd5b505050506040513d601f19601f820116820180604052508101906113209190612826565b50505060028301805460ff191660011790556040516001600160a01b038616907f2ab676eef3f76f1bd4e765a352c6cd81e62702f7ad3d363291c8b60582a4525090600090a25050505050565b611375611f62565b61137e82612007565b611388828261200f565b5050565b60006113966120d1565b506000805160206138e383398151915290565b6113b1611ea7565b6127108111156114035760405162461bcd60e51b815260206004820152601b60248201527f466565206d757374206265203c3d20313030303020283130302529000000000060448201526064016108f2565b600780549082905560408051828152602081018490527f525ad74c8a8eb66a2372d62022c6d2813136ef0f41574506841342146cf694db9101610d44565b611449611ea7565b6001600160a01b0381166114975760405162461bcd60e51b8152602060048201526015602482015274496e76616c6964207661756c74206164647265737360581b60448201526064016108f2565b600980546001600160a01b038381166001600160a01b0319831681179093556040519116919082907f16e2accad9173abff57b295b56993ec5d86b3cbf791fea02f02a6616463754ea90600090a35050565b600080604051806020016114fc9061246e565b601f1982820381018352601f90910116604081815282516020938401206001600160f81b0319848401526bffffffffffffffffffffffff193060601b1660218401526035830196909652605580830196909652805180830390960186526075909101905283519301929092209392505050565b611577611ea7565b610ff0600061211a565b7ff0c57e16840df040f15088dc2f81fe391c3923bec73e23a9662efc9c229c6a008054600160401b810460ff16159067ffffffffffffffff166000811580156115c75750825b905060008267ffffffffffffffff1660011480156115e45750303b155b9050811580156115f2575080155b156116105760405163f92ee8a960e01b815260040160405180910390fd5b845467ffffffffffffffff19166001178555831561163a57845460ff60401b1916600160401b1785555b6116433361218b565b61164b61219c565b6116536121a4565b600980546001600160a01b038a166001600160a01b0319918216179091556008889055600787905560068054821633908117909155600180548316909117905560008054909116905560001960035583156116e857845460ff60401b19168555604051600181527fc7f505b2f371ae2175ee4913f4499e1f2633a7b5936321eed1cdaeb6115181d29060200160405180910390a15b5050505050505050565b6116fa611ea7565b610ff06121b4565b61170a611ea7565b600380549082905560408051828152602081018490527f321ab5438b9ee682a502303b2e3dcbab41b3e9fadccc6e505bdec4305ddad5d09101610d44565b611750611ea7565b6001600160a01b0381166117a65760405162461bcd60e51b815260206004820152601860248201527f496e76616c6964206f70657261746f722061646472657373000000000000000060448201526064016108f2565b600680546001600160a01b038381166001600160a01b0319831681179093556040519116919082907fd58299b712891143e76310d5e664c4203c940a67db37cf856bdaa3c5c76a802c90600090a35050565b611800611ea7565b6127108111156118525760405162461bcd60e51b815260206004820152601b60248201527f466565206d757374206265203c3d20313030303020283130302529000000000060448201526064016108f2565b600880549082905560408051828152602081018490527f3063d3516a6a2d04f3fcbbb8096b055b0976989088fe108ad8081c526a594abd9101610d44565b611898611dbb565b600082116118de5760405162461bcd60e51b8152602060048201526013602482015272125b9d985b1a59081cd85b1948185b5bdd5b9d606a1b60448201526064016108f2565b6001600160a01b0383166000908152600d60205260409020805461193c5760405162461bcd60e51b8152602060048201526015602482015274151bdad95b881b9bdd081a5b9a5d1a585b1a5e9959605a1b60448201526064016108f2565b60006119488585610d50565b9050828110156119905760405162461bcd60e51b815260206004820152601360248201527229b634b83830b3b290383937ba32b1ba34b7b760691b60448201526064016108f2565b60008061199f83600854611dec565b91509150816119c05760405162461bcd60e51b81526004016108f29061272f565b6119cc81612710611e37565b9092509050816119ee5760405162461bcd60e51b81526004016108f29061272f565b60006119fa8483611e6a565b909350905082611a4c5760405162461bcd60e51b815260206004820181905260248201527f54525820616d6f756e742063616c63756c6174696f6e20756e646572666c6f7760448201526064016108f2565b8454611a589085611e6a565b8655925082611aa95760405162461bcd60e51b815260206004820152601c60248201527f54525820726573657276652075706461746520756e646572666c6f770000000060448201526064016108f2565b611ab7856001015488611e8c565b6001870155925082611b0b5760405162461bcd60e51b815260206004820152601d60248201527f546f6b656e207265736572766520757064617465206f766572666c6f7700000060448201526064016108f2565b6040516323b872dd60e01b8152336004820152306024820152604481018890526001600160a01b038916906323b872dd906064016020604051808303816000875af1158015611b5e573d6000803e3d6000fd5b505050506040513d601f19601f82011682018060405250810190611b829190612766565b611bc65760405162461bcd60e51b8152602060048201526015602482015274151bdad95b881d1c985b9cd9995c8819985a5b1959605a1b60448201526064016108f2565b604051339082156108fc029083906000818181858888f19350505050158015611bf3573d6000803e3d6000fd5b506009546040516001600160a01b039091169083156108fc029084906000818181858888f19350505050158015611c2e573d6000803e3d6000fd5b50604080518581526020810184905290810188905233906001600160a01b038a16907f9387a595ac4be9038bbb9751abad8baa3dcf219dd9e19abb81552bd521fe35469060600160405180910390a35050505050505050565b611c8f611ea7565b600580549082905560408051828152602081018490527f387269377ae17304805d5f88cea4252e5ca47346783c279aeb9e8627335a49ac9101610d44565b611cd5611ea7565b6001600160a01b038116611cff57604051631e4fbdf760e01b8152600060048201526024016108f2565b611d088161211a565b50565b611d13611ea7565b6001600160a01b038116611d695760405162461bcd60e51b815260206004820152601860248201527f496e76616c6964206c61756e636865722061646472657373000000000000000060448201526064016108f2565b600180546001600160a01b038381166001600160a01b0319831681179093556040519116919082907f349b3ca858f1d049aa7b4e826494f79354dbe5f1125ec5442e2d309d21646ec290600090a35050565b6000805160206139038339815191525460ff1615610ff05760405163d93c066560e01b815260040160405180910390fd5b60008083600003611e035750600190506000611e30565b83830283858281611e1657611e16612854565b0414611e29576000809250925050611e30565b6001925090505b9250929050565b60008082600003611e4d57506000905080611e30565b6001838581611e5e57611e5e612854565b04915091509250929050565b60008083831115611e8057506000905080611e30565b50600193919092039150565b60008083830184811015611e29576000809250925050611e30565b33611ed97f9016d09d72d40fdae2fd8ceac6b6234c7706214fd39c1cd1e609a0528c199300546001600160a01b031690565b6001600160a01b031614610ff05760405163118cdaa760e01b81523360048201526024016108f2565b611f0a6121fd565b600080516020613903833981519152805460ff191681557f5db9ee0a495bf2e6ff9c91a7834c1ba4fdd244a5e8aa4e537bd38aeae4b073aa335b6040516001600160a01b03909116815260200160405180910390a150565b306001600160a01b037f0000000000000000000000000000000000000000000000000000000000000000161480611fe957507f00000000000000000000000000000000000000000000000000000000000000006001600160a01b0316611fdd6000805160206138e3833981519152546001600160a01b031690565b6001600160a01b031614155b15610ff05760405163703e46dd60e11b815260040160405180910390fd5b611d08611ea7565b816001600160a01b03166352d1902d6040518163ffffffff1660e01b8152600401602060405180830381865afa925050508015612069575060408051601f3d908101601f191682019092526120669181019061286a565b60015b61209157604051634c9c8ce360e01b81526001600160a01b03831660048201526024016108f2565b6000805160206138e383398151915281146120c257604051632a87526960e21b8152600481018290526024016108f2565b6120cc838361222d565b505050565b306001600160a01b037f00000000000000000000000000000000000000000000000000000000000000001614610ff05760405163703e46dd60e11b815260040160405180910390fd5b7f9016d09d72d40fdae2fd8ceac6b6234c7706214fd39c1cd1e609a0528c19930080546001600160a01b031981166001600160a01b03848116918217845560405192169182907f8be0079c531659141344cd1fd0a4f28419497f9722a3daafe3b4186f6b6457e090600090a3505050565b612193612283565b611d08816122cc565b610ff0612283565b6121ac612283565b610ff06122d4565b6121bc611dbb565b600080516020613903833981519152805460ff191660011781557f62e78cea01bee320cd4e420270b5ea74000d11b0c9f74754ebdbfc544b05a25833611f44565b6000805160206139038339815191525460ff16610ff057604051638dfc202b60e01b815260040160405180910390fd5b612236826122f5565b6040516001600160a01b038316907fbc7cd75a20ee27fd9adebab32041f755214dbc6bffa90cc0225b39da2e5c2d3b90600090a280511561227b576120cc828261235a565b6113886123c7565b7ff0c57e16840df040f15088dc2f81fe391c3923bec73e23a9662efc9c229c6a0054600160401b900460ff16610ff057604051631afcd79f60e31b815260040160405180910390fd5b611cd5612283565b6122dc612283565b600080516020613903833981519152805460ff19169055565b806001600160a01b03163b60000361232b57604051634c9c8ce360e01b81526001600160a01b03821660048201526024016108f2565b6000805160206138e383398151915280546001600160a01b0319166001600160a01b0392909216919091179055565b6060600080846001600160a01b0316846040516123779190612883565b600060405180830381855af49150503d80600081146123b2576040519150601f19603f3d011682016040523d82523d6000602084013e6123b7565b606091505b5091509150610cf78583836123e6565b3415610ff05760405163b398979f60e01b815260040160405180910390fd5b6060826123fb576123f682612445565b61243e565b815115801561241257506001600160a01b0384163b155b1561243b57604051639996b31560e01b81526001600160a01b03851660048201526024016108f2565b50805b9392505050565b8051156124555780518082602001fd5b604051630a12f52160e11b815260040160405180910390fd5b611043806128a083390190565b80356001600160a01b038116811461249257600080fd5b919050565b600080604083850312156124aa57600080fd5b6124b38361247b565b946020939093013593505050565b6000602082840312156124d357600080fd5b61243e8261247b565b6000602082840312156124ee57600080fd5b5035919050565b634e487b7160e01b600052604160045260246000fd5b60008067ffffffffffffffff841115612526576125266124f5565b50604051601f19601f85018116603f0116810181811067ffffffffffffffff82111715612555576125556124f5565b60405283815290508082840185101561256d57600080fd5b83836020830137600060208583010152509392505050565b600082601f83011261259657600080fd5b61243e8383356020850161250b565b600080604083850312156125b857600080fd5b823567ffffffffffffffff8111156125cf57600080fd5b6125db85828601612585565b925050602083013567ffffffffffffffff8111156125f857600080fd5b61260485828601612585565b9150509250929050565b6000806040838503121561262157600080fd5b61262a8361247b565b91506126386020840161247b565b90509250929050565b6000806040838503121561265457600080fd5b61265d8361247b565b9150602083013567ffffffffffffffff81111561267957600080fd5b8301601f8101851361268a57600080fd5b6126048582356020840161250b565b6000806000606084860312156126ae57600080fd5b6126b78461247b565b95602085013595506040909401359392505050565b60005b838110156126e75781810151838201526020016126cf565b50506000910152565b600081518084526127088160208601602086016126cc565b601f01601f19169290920160200192915050565b60208152600061243e60208301846126f0565b60208082526018908201527f4665652063616c63756c6174696f6e206f766572666c6f770000000000000000604082015260600190565b60006020828403121561277857600080fd5b8151801515811461243e57600080fd5b60208082526014908201527343616c63756c6174696f6e206f766572666c6f7760601b604082015260600190565b6040815260006127c960408301856126f0565b82810360208401526127db81856126f0565b95945050505050565b634e487b7160e01b600052601160045260246000fd5b60006001820161280c5761280c6127e4565b5060010190565b81810381811115610cfc57610cfc6127e4565b60008060006060848603121561283b57600080fd5b5050815160208301516040909301519094929350919050565b634e487b7160e01b600052601260045260246000fd5b60006020828403121561287c57600080fd5b5051919050565b600082516128958184602087016126cc565b919091019291505056fe6080604052348015600f57600080fd5b506110248061001f6000396000f3fe608060405234801561001057600080fd5b50600436106101005760003560e01c806370a082311161009757806395d89b411161006657806395d89b411461025f578063a9059cbb14610267578063dd62ed3e1461027a578063f2fde38b1461028d57600080fd5b806370a08231146101d4578063715018a61461020a57806379cc6790146102125780638da5cb5b1461022557600080fd5b8063313ce567116100d3578063313ce5671461018a57806340c10f191461019957806342966c68146101ae5780634cd88b76146101c157600080fd5b806306fdde0314610105578063095ea7b31461012357806318160ddd1461014657806323b872dd14610177575b600080fd5b61010d6102a0565b60405161011a9190610b0b565b60405180910390f35b610136610131366004610b75565b610363565b604051901515815260200161011a565b7f52c63247e1f47db19d5ce0460030c497f067ca4cebf71ba98eeadabe20bace02545b60405190815260200161011a565b610136610185366004610b9f565b61037d565b6040516012815260200161011a565b6101ac6101a7366004610b75565b6103a1565b005b6101ac6101bc366004610bdc565b6103b7565b6101ac6101cf366004610c9a565b6103c4565b6101696101e2366004610d03565b6001600160a01b03166000908152600080516020610fcf833981519152602052604090205490565b6101ac610509565b6101ac610220366004610b75565b61051d565b7f9016d09d72d40fdae2fd8ceac6b6234c7706214fd39c1cd1e609a0528c199300546040516001600160a01b03909116815260200161011a565b61010d610532565b610136610275366004610b75565b610571565b610169610288366004610d25565b61057f565b6101ac61029b366004610d03565b6105c9565b7f52c63247e1f47db19d5ce0460030c497f067ca4cebf71ba98eeadabe20bace038054606091600080516020610fcf833981519152916102df90610d58565b80601f016020809104026020016040519081016040528092919081815260200182805461030b90610d58565b80156103585780601f1061032d57610100808354040283529160200191610358565b820191906000526020600020905b81548152906001019060200180831161033b57829003601f168201915b505050505091505090565b600033610371818585610609565b60019150505b92915050565b60003361038b85828561061b565b610396858585610681565b506001949350505050565b6103a96106e0565b6103b3828261073b565b5050565b6103c13382610771565b50565b7ff0c57e16840df040f15088dc2f81fe391c3923bec73e23a9662efc9c229c6a008054600160401b810460ff16159067ffffffffffffffff1660008115801561040a5750825b905060008267ffffffffffffffff1660011480156104275750303b155b905081158015610435575080155b156104535760405163f92ee8a960e01b815260040160405180910390fd5b845467ffffffffffffffff19166001178555831561047d57845460ff60401b1916600160401b1785555b61048787876107a7565b61048f6107b9565b610498336107c1565b6104ba336104a86012600a610e8f565b6104b590620f4240610e9e565b61073b565b831561050057845460ff60401b19168555604051600181527fc7f505b2f371ae2175ee4913f4499e1f2633a7b5936321eed1cdaeb6115181d29060200160405180910390a15b50505050505050565b6105116106e0565b61051b60006107d2565b565b61052882338361061b565b6103b38282610771565b7f52c63247e1f47db19d5ce0460030c497f067ca4cebf71ba98eeadabe20bace048054606091600080516020610fcf833981519152916102df90610d58565b600033610371818585610681565b6001600160a01b0391821660009081527f52c63247e1f47db19d5ce0460030c497f067ca4cebf71ba98eeadabe20bace016020908152604080832093909416825291909152205490565b6105d16106e0565b6001600160a01b03811661060057604051631e4fbdf760e01b8152600060048201526024015b60405180910390fd5b6103c1816107d2565b6106168383836001610843565b505050565b6000610627848461057f565b9050600019811461067b578181101561066c57604051637dc7a0d960e11b81526001600160a01b038416600482015260248101829052604481018390526064016105f7565b61067b84848484036000610843565b50505050565b6001600160a01b0383166106ab57604051634b637e8f60e11b8152600060048201526024016105f7565b6001600160a01b0382166106d55760405163ec442f0560e01b8152600060048201526024016105f7565b61061683838361092b565b336107127f9016d09d72d40fdae2fd8ceac6b6234c7706214fd39c1cd1e609a0528c199300546001600160a01b031690565b6001600160a01b03161461051b5760405163118cdaa760e01b81523360048201526024016105f7565b6001600160a01b0382166107655760405163ec442f0560e01b8152600060048201526024016105f7565b6103b36000838361092b565b6001600160a01b03821661079b57604051634b637e8f60e11b8152600060048201526024016105f7565b6103b38260008361092b565b6107af610a69565b6103b38282610ab2565b61051b610a69565b6107c9610a69565b6103c181610b03565b7f9016d09d72d40fdae2fd8ceac6b6234c7706214fd39c1cd1e609a0528c19930080546001600160a01b031981166001600160a01b03848116918217845560405192169182907f8be0079c531659141344cd1fd0a4f28419497f9722a3daafe3b4186f6b6457e090600090a3505050565b600080516020610fcf8339815191526001600160a01b03851661087c5760405163e602df0560e01b8152600060048201526024016105f7565b6001600160a01b0384166108a657604051634a1406b160e11b8152600060048201526024016105f7565b6001600160a01b0380861660009081526001830160209081526040808320938816835292905220839055811561092457836001600160a01b0316856001600160a01b03167f8c5be1e5ebec7d5bd14f71427d1e84f3dd0314c0f7b2291e5b200ac8c7c3b9258560405161091b91815260200190565b60405180910390a35b5050505050565b600080516020610fcf8339815191526001600160a01b038416610967578181600201600082825461095c9190610eb5565b909155506109d99050565b6001600160a01b038416600090815260208290526040902054828110156109ba5760405163391434e360e21b81526001600160a01b038616600482015260248101829052604481018490526064016105f7565b6001600160a01b03851660009081526020839052604090209083900390555b6001600160a01b0383166109f7576002810180548390039055610a16565b6001600160a01b03831660009081526020829052604090208054830190555b826001600160a01b0316846001600160a01b03167fddf252ad1be2c89b69c2b068fc378daa952ba7f163c4a11628f55a4df523b3ef84604051610a5b91815260200190565b60405180910390a350505050565b7ff0c57e16840df040f15088dc2f81fe391c3923bec73e23a9662efc9c229c6a0054600160401b900460ff1661051b57604051631afcd79f60e31b815260040160405180910390fd5b610aba610a69565b600080516020610fcf8339815191527f52c63247e1f47db19d5ce0460030c497f067ca4cebf71ba98eeadabe20bace03610af48482610f0f565b506004810161067b8382610f0f565b6105d1610a69565b602081526000825180602084015260005b81811015610b395760208186018101516040868401015201610b1c565b506000604082850101526040601f19601f83011684010191505092915050565b80356001600160a01b0381168114610b7057600080fd5b919050565b60008060408385031215610b8857600080fd5b610b9183610b59565b946020939093013593505050565b600080600060608486031215610bb457600080fd5b610bbd84610b59565b9250610bcb60208501610b59565b929592945050506040919091013590565b600060208284031215610bee57600080fd5b5035919050565b634e487b7160e01b600052604160045260246000fd5b600082601f830112610c1c57600080fd5b813567ffffffffffffffff811115610c3657610c36610bf5565b604051601f8201601f19908116603f0116810167ffffffffffffffff81118282101715610c6557610c65610bf5565b604052818152838201602001851015610c7d57600080fd5b816020850160208301376000918101602001919091529392505050565b60008060408385031215610cad57600080fd5b823567ffffffffffffffff811115610cc457600080fd5b610cd085828601610c0b565b925050602083013567ffffffffffffffff811115610ced57600080fd5b610cf985828601610c0b565b9150509250929050565b600060208284031215610d1557600080fd5b610d1e82610b59565b9392505050565b60008060408385031215610d3857600080fd5b610d4183610b59565b9150610d4f60208401610b59565b90509250929050565b600181811c90821680610d6c57607f821691505b602082108103610d8c57634e487b7160e01b600052602260045260246000fd5b50919050565b634e487b7160e01b600052601160045260246000fd5b6001815b6001841115610de357808504811115610dc757610dc7610d92565b6001841615610dd557908102905b60019390931c928002610dac565b935093915050565b600082610dfa57506001610377565b81610e0757506000610377565b8160018114610e1d5760028114610e2757610e43565b6001915050610377565b60ff841115610e3857610e38610d92565b50506001821b610377565b5060208310610133831016604e8410600b8410161715610e66575081810a610377565b610e736000198484610da8565b8060001904821115610e8757610e87610d92565b029392505050565b6000610d1e60ff841683610deb565b808202811582820484141761037757610377610d92565b8082018082111561037757610377610d92565b601f82111561061657806000526020600020601f840160051c81016020851015610eef5750805b601f840160051c820191505b818110156109245760008155600101610efb565b815167ffffffffffffffff811115610f2957610f29610bf5565b610f3d81610f378454610d58565b84610ec8565b6020601f821160018114610f715760008315610f595750848201515b600019600385901b1c1916600184901b178455610924565b600084815260208120601f198516915b82811015610fa15787850151825560209485019460019092019101610f81565b5084821015610fbf5786840151600019600387901b60f8161c191681555b50505050600190811b0190555056fe52c63247e1f47db19d5ce0460030c497f067ca4cebf71ba98eeadabe20bace00a26469706673582212204784389d59e77d3bb4c98d8c95bb99b3fb207462b9760b5f1a7fa29b1d69060e64736f6c634300081b0033360894a13ba1a3210667c828492db98dca3e2076cc3735a920a3ca505d382bbccd5ed15c6e187e77e9aee88184c21f4f2182ab5827cb3b7e07fbedcd63f03300a26469706673582212202f5fac06b969d8ea0a41eecdbfbad3819ea71d0081b2cfc8d88b3207a0e1a52064736f6c634300081b0033",
  "linkReferences": {},
  "deployedLinkReferences": {}
}