{
  "_format": "hh-sol-artifact-1",
  "contractName": "LaunchpadToken",
  "sourceName": "contracts/Launchpad.sol",
  "abi": [
    {
      "inputs": [
        {
          "internalType": "address",
          "name": "spender",
          "type": "address"
        },
        {
          "internalType": "uint256",
          "name": "allowance",
          "type": "uint256"
        },
        {
          "internalType": "uint256",
          "name": "needed",
          "type": "uint256"
        }
      ],
      "name": "ERC20InsufficientAllowance",
      "type": "error"
    },
    {
      "inputs": [
        {
          "internalType": "address",
          "name": "sender",
          "type": "address"
        },
        {
          "internalType": "uint256",
          "name": "balance",
          "type": "uint256"
        },
        {
          "internalType": "uint256",
          "name": "needed",
          "type": "uint256"
        }
      ],
      "name": "ERC20InsufficientBalance",
      "type": "error"
    },
    {
      "inputs": [
        {
          "internalType": "address",
          "name": "approver",
          "type": "address"
        }
      ],
      "name": "ERC20InvalidApprover",
      "type": "error"
    },
    {
      "inputs": [
        {
          "internalType": "address",
          "name": "receiver",
          "type": "address"
        }
      ],
      "name": "ERC20InvalidReceiver",
      "type": "error"
    },
    {
      "inputs": [
        {
          "internalType": "address",
          "name": "sender",
          "type": "address"
        }
      ],
      "name": "ERC20InvalidSender",
      "type": "error"
    },
    {
      "inputs": [
        {
          "internalType": "address",
          "name": "spender",
          "type": "address"
        }
      ],
      "name": "ERC20InvalidSpender",
      "type": "error"
    },
    {
      "inputs": [],
      "name": "InvalidInitialization",
      "type": "error"
    },
    {
      "inputs": [],
      "name": "NotInitializing",
      "type": "error"
    },
    {
      "inputs": [
        {
          "internalType": "address",
          "name": "owner",
          "type": "address"
        }
      ],
      "name": "OwnableInvalidOwner",
      "type": "error"
    },
    {
      "inputs": [
        {
          "internalType": "address",
          "name": "account",
          "type": "address"
        }
      ],
      "name": "OwnableUnauthorizedAccount",
      "type": "error"
    },
    {
      "anonymous": false,
      "inputs": [
        {
          "indexed": true,
          "internalType": "address",
          "name": "owner",
          "type": "address"
        },
        {
          "indexed": true,
          "internalType": "address",
          "name": "spender",
          "type": "address"
        },
        {
          "indexed": false,
          "internalType": "uint256",
          "name": "value",
          "type": "uint256"
        }
      ],
      "name": "Approval",
      "type": "event"
    },
    {
      "anonymous": false,
      "inputs": [
        {
          "indexed": false,
          "internalType": "uint64",
          "name": "version",
          "type": "uint64"
        }
      ],
      "name": "Initialized",
      "type": "event"
    },
    {
      "anonymous": false,
      "inputs": [
        {
          "indexed": true,
          "internalType": "address",
          "name": "previousOwner",
          "type": "address"
        },
        {
          "indexed": true,
          "internalType": "address",
          "name": "newOwner",
          "type": "address"
        }
      ],
      "name": "OwnershipTransferred",
      "type": "event"
    },
    {
      "anonymous": false,
      "inputs": [
        {
          "indexed": true,
          "internalType": "address",
          "name": "from",
          "type": "address"
        },
        {
          "indexed": true,
          "internalType": "address",
          "name": "to",
          "type": "address"
        },
        {
          "indexed": false,
          "internalType": "uint256",
          "name": "value",
          "type": "uint256"
        }
      ],
      "name": "Transfer",
      "type": "event"
    },
    {
      "inputs": [
        {
          "internalType": "address",
          "name": "owner",
          "type": "address"
        },
        {
          "internalType": "address",
          "name": "spender",
          "type": "address"
        }
      ],
      "name": "allowance",
      "outputs": [
        {
          "internalType": "uint256",
          "name": "",
          "type": "uint256"
        }
      ],
      "stateMutability": "view",
      "type": "function"
    },
    {
      "inputs": [
        {
          "internalType": "address",
          "name": "spender",
          "type": "address"
        },
        {
          "internalType": "uint256",
          "name": "value",
          "type": "uint256"
        }
      ],
      "name": "approve",
      "outputs": [
        {
          "internalType": "bool",
          "name": "",
          "type": "bool"
        }
      ],
      "stateMutability": "nonpayable",
      "type": "function"
    },
    {
      "inputs": [
        {
          "internalType": "address",
          "name": "account",
          "type": "address"
        }
      ],
      "name": "balanceOf",
      "outputs": [
        {
          "internalType": "uint256",
          "name": "",
          "type": "uint256"
        }
      ],
      "stateMutability": "view",
      "type": "function"
    },
    {
      "inputs": [
        {
          "internalType": "uint256",
          "name": "value",
          "type": "uint256"
        }
      ],
      "name": "burn",
      "outputs": [],
      "stateMutability": "nonpayable",
      "type": "function"
    },
    {
      "inputs": [
        {
          "internalType": "address",
          "name": "account",
          "type": "address"
        },
        {
          "internalType": "uint256",
          "name": "value",
          "type": "uint256"
        }
      ],
      "name": "burnFrom",
      "outputs": [],
      "stateMutability": "nonpayable",
      "type": "function"
    },
    {
      "inputs": [],
      "name": "decimals",
      "outputs": [
        {
          "internalType": "uint8",
          "name": "",
          "type": "uint8"
        }
      ],
      "stateMutability": "view",
      "type": "function"
    },
    {
      "inputs": [
        {
          "internalType": "string",
          "name": "name",
          "type": "string"
        },
        {
          "internalType": "string",
          "name": "symbol",
          "type": "string"
        }
      ],
      "name": "initialize",
      "outputs": [],
      "stateMutability": "nonpayable",
      "type": "function"
    },
    {
      "inputs": [
        {
          "internalType": "address",
          "name": "to",
          "type": "address"
        },
        {
          "internalType": "uint256",
          "name": "amount",
          "type": "uint256"
        }
      ],
      "name": "mint",
      "outputs": [],
      "stateMutability": "nonpayable",
      "type": "function"
    },
    {
      "inputs": [],
      "name": "name",
      "outputs": [
        {
          "internalType": "string",
          "name": "",
          "type": "string"
        }
      ],
      "stateMutability": "view",
      "type": "function"
    },
    {
      "inputs": [],
      "name": "owner",
      "outputs": [
        {
          "internalType": "address",
          "name": "",
          "type": "address"
        }
      ],
      "stateMutability": "view",
      "type": "function"
    },
    {
      "inputs": [],
      "name": "renounceOwnership",
      "outputs": [],
      "stateMutability": "nonpayable",
      "type": "function"
    },
    {
      "inputs": [],
      "name": "symbol",
      "outputs": [
        {
          "internalType": "string",
          "name": "",
          "type": "string"
        }
      ],
      "stateMutability": "view",
      "type": "function"
    },
    {
      "inputs": [],
      "name": "totalSupply",
      "outputs": [
        {
          "internalType": "uint256",
          "name": "",
          "type": "uint256"
        }
      ],
      "stateMutability": "view",
      "type": "function"
    },
    {
      "inputs": [
        {
          "internalType": "address",
          "name": "to",
          "type": "address"
        },
        {
          "internalType": "uint256",
          "name": "value",
          "type": "uint256"
        }
      ],
      "name": "transfer",
      "outputs": [
        {
          "internalType": "bool",
          "name": "",
          "type": "bool"
        }
      ],
      "stateMutability": "nonpayable",
      "type": "function"
    },
    {
      "inputs": [
        {
          "internalType": "address",
          "name": "from",
          "type": "address"
        },
        {
          "internalType": "address",
          "name": "to",
          "type": "address"
        },
        {
          "internalType": "uint256",
          "name": "value",
          "type": "uint256"
        }
      ],
      "name": "transferFrom",
      "outputs": [
        {
          "internalType": "bool",
          "name": "",
          "type": "bool"
        }
      ],
      "stateMutability": "nonpayable",
      "type": "function"
    },
    {
      "inputs": [
        {
          "internalType": "address",
          "name": "newOwner",
          "type": "address"
        }
      ],
      "name": "transferOwnership",
      "outputs": [],
      "stateMutability": "nonpayable",
      "type": "function"
    }
  ],
  "bytecode": "0x6080604052348015600f57600080fd5b506110248061001f6000396000f3fe608060405234801561001057600080fd5b50600436106101005760003560e01c806370a082311161009757806395d89b411161006657806395d89b411461025f578063a9059cbb14610267578063dd62ed3e1461027a578063f2fde38b1461028d57600080fd5b806370a08231146101d4578063715018a61461020a57806379cc6790146102125780638da5cb5b1461022557600080fd5b8063313ce567116100d3578063313ce5671461018a57806340c10f191461019957806342966c68146101ae5780634cd88b76146101c157600080fd5b806306fdde0314610105578063095ea7b31461012357806318160ddd1461014657806323b872dd14610177575b600080fd5b61010d6102a0565b60405161011a9190610b0b565b60405180910390f35b610136610131366004610b75565b610363565b604051901515815260200161011a565b7f52c63247e1f47db19d5ce0460030c497f067ca4cebf71ba98eeadabe20bace02545b60405190815260200161011a565b610136610185366004610b9f565b61037d565b6040516012815260200161011a565b6101ac6101a7366004610b75565b6103a1565b005b6101ac6101bc366004610bdc565b6103b7565b6101ac6101cf366004610c9a565b6103c4565b6101696101e2366004610d03565b6001600160a01b03166000908152600080516020610fcf833981519152602052604090205490565b6101ac610509565b6101ac610220366004610b75565b61051d565b7f9016d09d72d40fdae2fd8ceac6b6234c7706214fd39c1cd1e609a0528c199300546040516001600160a01b03909116815260200161011a565b61010d610532565b610136610275366004610b75565b610571565b610169610288366004610d25565b61057f565b6101ac61029b366004610d03565b6105c9565b7f52c63247e1f47db19d5ce0460030c497f067ca4cebf71ba98eeadabe20bace038054606091600080516020610fcf833981519152916102df90610d58565b80601f016020809104026020016040519081016040528092919081815260200182805461030b90610d58565b80156103585780601f1061032d57610100808354040283529160200191610358565b820191906000526020600020905b81548152906001019060200180831161033b57829003601f168201915b505050505091505090565b600033610371818585610609565b60019150505b92915050565b60003361038b85828561061b565b610396858585610681565b506001949350505050565b6103a96106e0565b6103b3828261073b565b5050565b6103c13382610771565b50565b7ff0c57e16840df040f15088dc2f81fe391c3923bec73e23a9662efc9c229c6a008054600160401b810460ff16159067ffffffffffffffff1660008115801561040a5750825b905060008267ffffffffffffffff1660011480156104275750303b155b905081158015610435575080155b156104535760405163f92ee8a960e01b815260040160405180910390fd5b845467ffffffffffffffff19166001178555831561047d57845460ff60401b1916600160401b1785555b61048787876107a7565b61048f6107b9565b610498336107c1565b6104ba336104a86012600a610e8f565b6104b590620f4240610e9e565b61073b565b831561050057845460ff60401b19168555604051600181527fc7f505b2f371ae2175ee4913f4499e1f2633a7b5936321eed1cdaeb6115181d29060200160405180910390a15b50505050505050565b6105116106e0565b61051b60006107d2565b565b61052882338361061b565b6103b38282610771565b7f52c63247e1f47db19d5ce0460030c497f067ca4cebf71ba98eeadabe20bace048054606091600080516020610fcf833981519152916102df90610d58565b600033610371818585610681565b6001600160a01b0391821660009081527f52c63247e1f47db19d5ce0460030c497f067ca4cebf71ba98eeadabe20bace016020908152604080832093909416825291909152205490565b6105d16106e0565b6001600160a01b03811661060057604051631e4fbdf760e01b8152600060048201526024015b60405180910390fd5b6103c1816107d2565b6106168383836001610843565b505050565b6000610627848461057f565b9050600019811461067b578181101561066c57604051637dc7a0d960e11b81526001600160a01b038416600482015260248101829052604481018390526064016105f7565b61067b84848484036000610843565b50505050565b6001600160a01b0383166106ab57604051634b637e8f60e11b8152600060048201526024016105f7565b6001600160a01b0382166106d55760405163ec442f0560e01b8152600060048201526024016105f7565b61061683838361092b565b336107127f9016d09d72d40fdae2fd8ceac6b6234c7706214fd39c1cd1e609a0528c199300546001600160a01b031690565b6001600160a01b03161461051b5760405163118cdaa760e01b81523360048201526024016105f7565b6001600160a01b0382166107655760405163ec442f0560e01b8152600060048201526024016105f7565b6103b36000838361092b565b6001600160a01b03821661079b57604051634b637e8f60e11b8152600060048201526024016105f7565b6103b38260008361092b565b6107af610a69565b6103b38282610ab2565b61051b610a69565b6107c9610a69565b6103c181610b03565b7f9016d09d72d40fdae2fd8ceac6b6234c7706214fd39c1cd1e609a0528c19930080546001600160a01b031981166001600160a01b03848116918217845560405192169182907f8be0079c531659141344cd1fd0a4f28419497f9722a3daafe3b4186f6b6457e090600090a3505050565b600080516020610fcf8339815191526001600160a01b03851661087c5760405163e602df0560e01b8152600060048201526024016105f7565b6001600160a01b0384166108a657604051634a1406b160e11b8152600060048201526024016105f7565b6001600160a01b0380861660009081526001830160209081526040808320938816835292905220839055811561092457836001600160a01b0316856001600160a01b03167f8c5be1e5ebec7d5bd14f71427d1e84f3dd0314c0f7b2291e5b200ac8c7c3b9258560405161091b91815260200190565b60405180910390a35b5050505050565b600080516020610fcf8339815191526001600160a01b038416610967578181600201600082825461095c9190610eb5565b909155506109d99050565b6001600160a01b038416600090815260208290526040902054828110156109ba5760405163391434e360e21b81526001600160a01b038616600482015260248101829052604481018490526064016105f7565b6001600160a01b03851660009081526020839052604090209083900390555b6001600160a01b0383166109f7576002810180548390039055610a16565b6001600160a01b03831660009081526020829052604090208054830190555b826001600160a01b0316846001600160a01b03167fddf252ad1be2c89b69c2b068fc378daa952ba7f163c4a11628f55a4df523b3ef84604051610a5b91815260200190565b60405180910390a350505050565b7ff0c57e16840df040f15088dc2f81fe391c3923bec73e23a9662efc9c229c6a0054600160401b900460ff1661051b57604051631afcd79f60e31b815260040160405180910390fd5b610aba610a69565b600080516020610fcf8339815191527f52c63247e1f47db19d5ce0460030c497f067ca4cebf71ba98eeadabe20bace03610af48482610f0f565b506004810161067b8382610f0f565b6105d1610a69565b602081526000825180602084015260005b81811015610b395760208186018101516040868401015201610b1c565b506000604082850101526040601f19601f83011684010191505092915050565b80356001600160a01b0381168114610b7057600080fd5b919050565b60008060408385031215610b8857600080fd5b610b9183610b59565b946020939093013593505050565b600080600060608486031215610bb457600080fd5b610bbd84610b59565b9250610bcb60208501610b59565b929592945050506040919091013590565b600060208284031215610bee57600080fd5b5035919050565b634e487b7160e01b600052604160045260246000fd5b600082601f830112610c1c57600080fd5b813567ffffffffffffffff811115610c3657610c36610bf5565b604051601f8201601f19908116603f0116810167ffffffffffffffff81118282101715610c6557610c65610bf5565b604052818152838201602001851015610c7d57600080fd5b816020850160208301376000918101602001919091529392505050565b60008060408385031215610cad57600080fd5b823567ffffffffffffffff811115610cc457600080fd5b610cd085828601610c0b565b925050602083013567ffffffffffffffff811115610ced57600080fd5b610cf985828601610c0b565b9150509250929050565b600060208284031215610d1557600080fd5b610d1e82610b59565b9392505050565b60008060408385031215610d3857600080fd5b610d4183610b59565b9150610d4f60208401610b59565b90509250929050565b600181811c90821680610d6c57607f821691505b602082108103610d8c57634e487b7160e01b600052602260045260246000fd5b50919050565b634e487b7160e01b600052601160045260246000fd5b6001815b6001841115610de357808504811115610dc757610dc7610d92565b6001841615610dd557908102905b60019390931c928002610dac565b935093915050565b600082610dfa57506001610377565b81610e0757506000610377565b8160018114610e1d5760028114610e2757610e43565b6001915050610377565b60ff841115610e3857610e38610d92565b50506001821b610377565b5060208310610133831016604e8410600b8410161715610e66575081810a610377565b610e736000198484610da8565b8060001904821115610e8757610e87610d92565b029392505050565b6000610d1e60ff841683610deb565b808202811582820484141761037757610377610d92565b8082018082111561037757610377610d92565b601f82111561061657806000526020600020601f840160051c81016020851015610eef5750805b601f840160051c820191505b818110156109245760008155600101610efb565b815167ffffffffffffffff811115610f2957610f29610bf5565b610f3d81610f378454610d58565b84610ec8565b6020601f821160018114610f715760008315610f595750848201515b600019600385901b1c1916600184901b178455610924565b600084815260208120601f198516915b82811015610fa15787850151825560209485019460019092019101610f81565b5084821015610fbf5786840151600019600387901b60f8161c191681555b50505050600190811b0190555056fe52c63247e1f47db19d5ce0460030c497f067ca4cebf71ba98eeadabe20bace00a26469706673582212204784389d59e77d3bb4c98d8c95bb99b3fb207462b9760b5f1a7fa29b1d69060e64736f6c634300081b0033",
  "linkReferences": {},
  "deployedLinkReferences": {}
}