{
	"_format": "hh-sol-artifact-1",
	"contractName": "PumperFactory",
	"sourceName": "contracts/PumperFactory.sol",
	"abi": [
		{
			"anonymous": false,
			"inputs": [
				{
					"indexed": true,
					"internalType": "address",
					"name": "token",
					"type": "address"
				},
				{
					"indexed": true,
					"internalType": "address",
					"name": "buyer",
					"type": "address"
				},
				{
					"indexed": false,
					"internalType": "uint256",
					"name": "amount",
					"type": "uint256"
				},
				{
					"indexed": false,
					"internalType": "uint256",
					"name": "price",
					"type": "uint256"
				}
			],
			"name": "Buy",
			"type": "event"
		},
		{
			"anonymous": false,
			"inputs": [
				{
					"indexed": true,
					"internalType": "address",
					"name": "token",
					"type": "address"
				},
				{
					"indexed": true,
					"internalType": "address",
					"name": "pool",
					"type": "address"
				},
				{
					"indexed": false,
					"internalType": "uint256",
					"name": "x",
					"type": "uint256"
				},
				{
					"indexed": false,
					"internalType": "uint256",
					"name": "y",
					"type": "uint256"
				}
			],
			"name": "LiquidtyDeployed",
			"type": "event"
		},
		{
			"anonymous": false,
			"inputs": [
				{
					"indexed": true,
					"internalType": "address",
					"name": "creator",
					"type": "address"
				},
				{
					"indexed": true,
					"internalType": "address",
					"name": "token",
					"type": "address"
				}
			],
			"name": "NewPumpToken",
			"type": "event"
		},
		{
			"anonymous": false,
			"inputs": [
				{
					"indexed": true,
					"internalType": "address",
					"name": "token",
					"type": "address"
				},
				{
					"indexed": true,
					"internalType": "address",
					"name": "seller",
					"type": "address"
				},
				{
					"indexed": false,
					"internalType": "uint256",
					"name": "amount",
					"type": "uint256"
				},
				{
					"indexed": false,
					"internalType": "uint256",
					"name": "price",
					"type": "uint256"
				}
			],
			"name": "Sell",
			"type": "event"
		},
		{
			"inputs": [
				{
					"internalType": "string",
					"name": "name",
					"type": "string"
				},
				{
					"internalType": "string",
					"name": "symbol",
					"type": "string"
				}
			],
			"name": "createPumpToken",
			"outputs": [
				{
					"internalType": "address",
					"name": "",
					"type": "address"
				}
			],
			"stateMutability": "nonpayable",
			"type": "function"
		},
		{
			"inputs": [
				{
					"internalType": "address",
					"name": "",
					"type": "address"
				},
				{
					"internalType": "uint256",
					"name": "",
					"type": "uint256"
				}
			],
			"name": "deployedPumpTokens",
			"outputs": [
				{
					"internalType": "address",
					"name": "",
					"type": "address"
				}
			],
			"stateMutability": "view",
			"type": "function"
		},
		{
			"inputs": [
				{
					"internalType": "address",
					"name": "buyer",
					"type": "address"
				},
				{
					"internalType": "uint256",
					"name": "amount",
					"type": "uint256"
				},
				{
					"internalType": "uint256",
					"name": "price",
					"type": "uint256"
				}
			],
			"name": "emitBuy",
			"outputs": [],
			"stateMutability": "nonpayable",
			"type": "function"
		},
		{
			"inputs": [
				{
					"internalType": "address",
					"name": "pool",
					"type": "address"
				},
				{
					"internalType": "uint256",
					"name": "x",
					"type": "uint256"
				},
				{
					"internalType": "uint256",
					"name": "y",
					"type": "uint256"
				}
			],
			"name": "emitLiquidtyDeployed",
			"outputs": [],
			"stateMutability": "nonpayable",
			"type": "function"
		},
		{
			"inputs": [
				{
					"internalType": "address",
					"name": "seller",
					"type": "address"
				},
				{
					"internalType": "uint256",
					"name": "amount",
					"type": "uint256"
				},
				{
					"internalType": "uint256",
					"name": "price",
					"type": "uint256"
				}
			],
			"name": "emitSell",
			"outputs": [],
			"stateMutability": "nonpayable",
			"type": "function"
		},
		{
			"inputs": [
				{
					"internalType": "bytes",
					"name": "_bytecode",
					"type": "bytes"
				},
				{
					"internalType": "uint256",
					"name": "_salt",
					"type": "uint256"
				}
			],
			"name": "getAddressBeforeDeployment",
			"outputs": [
				{
					"internalType": "address",
					"name": "",
					"type": "address"
				}
			],
			"stateMutability": "view",
			"type": "function"
		},
		{
			"inputs": [
				{
					"internalType": "string",
					"name": "name",
					"type": "string"
				},
				{
					"internalType": "string",
					"name": "symbol",
					"type": "string"
				}
			],
			"name": "getBytecode",
			"outputs": [
				{
					"internalType": "bytes",
					"name": "",
					"type": "bytes"
				}
			],
			"stateMutability": "view",
			"type": "function"
		},
		{
			"inputs": [
				{
					"internalType": "address",
					"name": "_creator",
					"type": "address"
				}
			],
			"name": "getDeployedPumpTokens",
			"outputs": [
				{
					"internalType": "address[]",
					"name": "",
					"type": "address[]"
				}
			],
			"stateMutability": "view",
			"type": "function"
		},
		{
			"inputs": [
				{
					"internalType": "address",
					"name": "_creator",
					"type": "address"
				}
			],
			"name": "getDeployedPumpTokensLen",
			"outputs": [
				{
					"internalType": "uint256",
					"name": "",
					"type": "uint256"
				}
			],
			"stateMutability": "view",
			"type": "function"
		}
	],
	"bytecode": "0x608060405234801561001057600080fd5b50613f33806100206000396000f3fe60806040523480156200001157600080fd5b5060043610620000a05760003560e01c80636ffc7436116200006f5780636ffc743614620001515780637814e750146200018757806388ae3c6b14620001bd578063a286cb1e14620001dd578063d0d579ab146200021357620000a0565b80631b00769914620000a557806337a9894614620000db5780634a7c974b14620001115780634e3f0a011462000131575b600080fd5b620000c36004803603810190620000bd919062000857565b62000249565b604051620000d29190620008af565b60405180910390f35b620000f96004803603810190620000f39190620008cc565b62000298565b604051620001089190620009cc565b60405180910390f35b6200012f6004803603810190620001299190620009f0565b62000366565b005b6200014f6004803603810190620001499190620009f0565b620003bd565b005b6200016f600480360381019062000169919062000bae565b62000414565b6040516200017e9190620008af565b60405180910390f35b620001a560048036038101906200019f9190620008cc565b62000460565b604051620001b4919062000c25565b60405180910390f35b620001db6004803603810190620001d59190620009f0565b620004ab565b005b620001fb6004803603810190620001f5919062000cf6565b62000589565b6040516200020a9190620008af565b60405180910390f35b6200023160048036038101906200022b919062000cf6565b62000717565b60405162000240919062000e04565b60405180910390f35b600060205281600052604060002081815481106200026657600080fd5b906000526020600020016000915091509054906101000a900473ffffffffffffffffffffffffffffffffffffffff1681565b60606000808373ffffffffffffffffffffffffffffffffffffffff1673ffffffffffffffffffffffffffffffffffffffff1681526020019081526020016000208054806020026020016040519081016040528092919081815260200182805480156200035a57602002820191906000526020600020905b8160009054906101000a900473ffffffffffffffffffffffffffffffffffffffff1673ffffffffffffffffffffffffffffffffffffffff16815260200190600101908083116200030f575b50505050509050919050565b8273ffffffffffffffffffffffffffffffffffffffff167f27b0834474dc0d53a72607948a7009a1c42dd5af9ff46bbe01284e407e3750ee8383604051620003b092919062000e28565b60405180910390a2505050565b8273ffffffffffffffffffffffffffffffffffffffff167f1cbc5ab135991bd2b6a4b034a04aa2aa086dac1371cb9b16b8b5e2ed6b036bed83836040516200040792919062000e28565b60405180910390a2505050565b60008060ff60f81b308486805190602001206040516020016200043b949392919062000f4a565b6040516020818303038152906040528051906020012090508060001c91505092915050565b60008060008373ffffffffffffffffffffffffffffffffffffffff1673ffffffffffffffffffffffffffffffffffffffff168152602001908152602001600020805490509050919050565b60008060003373ffffffffffffffffffffffffffffffffffffffff1673ffffffffffffffffffffffffffffffffffffffff168152602001908152602001600020805490501162000532576040517f08c379a0000000000000000000000000000000000000000000000000000000008152600401620005299062001027565b60405180910390fd5b8273ffffffffffffffffffffffffffffffffffffffff167fed7a144fad14804d5c249145e3e0e2b63a9eb455b76aee5bc92d711e9bba3e4a83836040516200057c92919062000e28565b60405180910390a2505050565b6000806000803373ffffffffffffffffffffffffffffffffffffffff1673ffffffffffffffffffffffffffffffffffffffff1681526020019081526020016000208054905060001b848430604051620005e29062000795565b620005f09392919062001095565b8190604051809103906000f590508015801562000611573d6000803e3d6000fd5b5090506000803373ffffffffffffffffffffffffffffffffffffffff1673ffffffffffffffffffffffffffffffffffffffff168152602001908152602001600020819080600181540180825580915050600190039060005260206000200160009091909190916101000a81548173ffffffffffffffffffffffffffffffffffffffff021916908373ffffffffffffffffffffffffffffffffffffffff1602179055508073ffffffffffffffffffffffffffffffffffffffff163373ffffffffffffffffffffffffffffffffffffffff167fc24da6acf73e7364c8cfd875ecc71c2e3f2e5727ee65767d0605e14a1de7494960405160405180910390a38091505092915050565b60606000604051806020016200072d9062000795565b6020820181038252601f19601f820116604052509050808484306040516020016200075b9392919062001095565b6040516020818303038152906040526040516020016200077d92919062001122565b60405160208183030381529060405291505092915050565b612db3806200114b83390190565b6000604051905090565b600080fd5b600080fd5b600073ffffffffffffffffffffffffffffffffffffffff82169050919050565b6000620007e482620007b7565b9050919050565b620007f681620007d7565b81146200080257600080fd5b50565b6000813590506200081681620007eb565b92915050565b6000819050919050565b62000831816200081c565b81146200083d57600080fd5b50565b600081359050620008518162000826565b92915050565b60008060408385031215620008715762000870620007ad565b5b6000620008818582860162000805565b9250506020620008948582860162000840565b9150509250929050565b620008a981620007d7565b82525050565b6000602082019050620008c660008301846200089e565b92915050565b600060208284031215620008e557620008e4620007ad565b5b6000620008f58482850162000805565b91505092915050565b600081519050919050565b600082825260208201905092915050565b6000819050602082019050919050565b6200093581620007d7565b82525050565b60006200094983836200092a565b60208301905092915050565b6000602082019050919050565b60006200096f82620008fe565b6200097b818562000909565b935062000988836200091a565b8060005b83811015620009bf578151620009a388826200093b565b9750620009b08362000955565b9250506001810190506200098c565b5085935050505092915050565b60006020820190508181036000830152620009e8818462000962565b905092915050565b60008060006060848603121562000a0c5762000a0b620007ad565b5b600062000a1c8682870162000805565b935050602062000a2f8682870162000840565b925050604062000a428682870162000840565b9150509250925092565b600080fd5b600080fd5b6000601f19601f8301169050919050565b7f4e487b7100000000000000000000000000000000000000000000000000000000600052604160045260246000fd5b62000aa18262000a56565b810181811067ffffffffffffffff8211171562000ac35762000ac262000a67565b5b80604052505050565b600062000ad8620007a3565b905062000ae6828262000a96565b919050565b600067ffffffffffffffff82111562000b095762000b0862000a67565b5b62000b148262000a56565b9050602081019050919050565b82818337600083830152505050565b600062000b4762000b418462000aeb565b62000acc565b90508281526020810184848401111562000b665762000b6562000a51565b5b62000b7384828562000b21565b509392505050565b600082601f83011262000b935762000b9262000a4c565b5b813562000ba584826020860162000b30565b91505092915050565b6000806040838503121562000bc85762000bc7620007ad565b5b600083013567ffffffffffffffff81111562000be95762000be8620007b2565b5b62000bf78582860162000b7b565b925050602062000c0a8582860162000840565b9150509250929050565b62000c1f816200081c565b82525050565b600060208201905062000c3c600083018462000c14565b92915050565b600067ffffffffffffffff82111562000c605762000c5f62000a67565b5b62000c6b8262000a56565b9050602081019050919050565b600062000c8f62000c898462000c42565b62000acc565b90508281526020810184848401111562000cae5762000cad62000a51565b5b62000cbb84828562000b21565b509392505050565b600082601f83011262000cdb5762000cda62000a4c565b5b813562000ced84826020860162000c78565b91505092915050565b6000806040838503121562000d105762000d0f620007ad565b5b600083013567ffffffffffffffff81111562000d315762000d30620007b2565b5b62000d3f8582860162000cc3565b925050602083013567ffffffffffffffff81111562000d635762000d62620007b2565b5b62000d718582860162000cc3565b9150509250929050565b600081519050919050565b600082825260208201905092915050565b60005b8381101562000db757808201518184015260208101905062000d9a565b60008484015250505050565b600062000dd08262000d7b565b62000ddc818562000d86565b935062000dee81856020860162000d97565b62000df98162000a56565b840191505092915050565b6000602082019050818103600083015262000e20818462000dc3565b905092915050565b600060408201905062000e3f600083018562000c14565b62000e4e602083018462000c14565b9392505050565b60007fff0000000000000000000000000000000000000000000000000000000000000082169050919050565b6000819050919050565b62000ea062000e9a8262000e55565b62000e81565b82525050565b60008160601b9050919050565b600062000ec08262000ea6565b9050919050565b600062000ed48262000eb3565b9050919050565b62000ef062000eea82620007d7565b62000ec7565b82525050565b6000819050919050565b62000f1562000f0f826200081c565b62000ef6565b82525050565b6000819050919050565b6000819050919050565b62000f4462000f3e8262000f1b565b62000f25565b82525050565b600062000f58828762000e8b565b60018201915062000f6a828662000edb565b60148201915062000f7c828562000f00565b60208201915062000f8e828462000f2f565b60208201915081905095945050505050565b600082825260208201905092915050565b7f4f6e6c792050756d706572546f6b656e2063616e2063616c6c2074686973206660008201527f756e6374696f6e00000000000000000000000000000000000000000000000000602082015250565b60006200100f60278362000fa0565b91506200101c8262000fb1565b604082019050919050565b60006020820190508181036000830152620010428162001000565b9050919050565b600081519050919050565b6000620010618262001049565b6200106d818562000fa0565b93506200107f81856020860162000d97565b6200108a8162000a56565b840191505092915050565b60006060820190508181036000830152620010b1818662001054565b90508181036020830152620010c7818562001054565b9050620010d860408301846200089e565b949350505050565b600081905092915050565b6000620010f88262000d7b565b620011048185620010e0565b93506200111681856020860162000d97565b80840191505092915050565b6000620011308285620010eb565b91506200113e8284620010eb565b9150819050939250505056fe6080604052678b78c5c0b8ad0000600755678ac7230489e80000600955731ccc7382d46313c24e1d13510b1c9445a792f4d4600d60006101000a81548173ffffffffffffffffffffffffffffffffffffffff021916908373ffffffffffffffffffffffffffffffffffffffff16021790555073b97582dcb6f2866098ca210095a04df3e11b76a6600e60006101000a81548173ffffffffffffffffffffffffffffffffffffffff021916908373ffffffffffffffffffffffffffffffffffffffff1602179055506000600e60146101000a81548160ff021916908315150217905550348015620000ee57600080fd5b5060405162002db338038062002db38339818101604052810190620001149190620007bd565b338383816003908162000128919062000aa2565b5080600490816200013a919062000aa2565b505050600073ffffffffffffffffffffffffffffffffffffffff168173ffffffffffffffffffffffffffffffffffffffff1603620001b25760006040517f1e4fbdf7000000000000000000000000000000000000000000000000000000008152600401620001a9919062000b9a565b60405180910390fd5b620001c3816200024260201b60201c565b506b033b2e3c9fd0803ce8000000600881905550620001eb306008546200030860201b60201c565b60095460085402600a8190555080600c60006101000a81548173ffffffffffffffffffffffffffffffffffffffff021916908373ffffffffffffffffffffffffffffffffffffffff16021790555050505062000c8c565b6000600560009054906101000a900473ffffffffffffffffffffffffffffffffffffffff16905081600560006101000a81548173ffffffffffffffffffffffffffffffffffffffff021916908373ffffffffffffffffffffffffffffffffffffffff1602179055508173ffffffffffffffffffffffffffffffffffffffff168173ffffffffffffffffffffffffffffffffffffffff167f8be0079c531659141344cd1fd0a4f28419497f9722a3daafe3b4186f6b6457e060405160405180910390a35050565b600073ffffffffffffffffffffffffffffffffffffffff168273ffffffffffffffffffffffffffffffffffffffff16036200037d5760006040517fec442f0500000000000000000000000000000000000000000000000000000000815260040162000374919062000b9a565b60405180910390fd5b62000391600083836200039560201b60201c565b5050565b600073ffffffffffffffffffffffffffffffffffffffff168373ffffffffffffffffffffffffffffffffffffffff1603620003eb578060026000828254620003de919062000be6565b92505081905550620004c1565b60008060008573ffffffffffffffffffffffffffffffffffffffff1673ffffffffffffffffffffffffffffffffffffffff168152602001908152602001600020549050818110156200047a578381836040517fe450d38c000000000000000000000000000000000000000000000000000000008152600401620004719392919062000c32565b60405180910390fd5b8181036000808673ffffffffffffffffffffffffffffffffffffffff1673ffffffffffffffffffffffffffffffffffffffff16815260200190815260200160002081905550505b600073ffffffffffffffffffffffffffffffffffffffff168273ffffffffffffffffffffffffffffffffffffffff16036200050c578060026000828254039250508190555062000559565b806000808473ffffffffffffffffffffffffffffffffffffffff1673ffffffffffffffffffffffffffffffffffffffff168152602001908152602001600020600082825401925050819055505b8173ffffffffffffffffffffffffffffffffffffffff168373ffffffffffffffffffffffffffffffffffffffff167fddf252ad1be2c89b69c2b068fc378daa952ba7f163c4a11628f55a4df523b3ef83604051620005b8919062000c6f565b60405180910390a3505050565b6000604051905090565b600080fd5b600080fd5b600080fd5b600080fd5b6000601f19601f8301169050919050565b7f4e487b7100000000000000000000000000000000000000000000000000000000600052604160045260246000fd5b6200062e82620005e3565b810181811067ffffffffffffffff8211171562000650576200064f620005f4565b5b80604052505050565b600062000665620005c5565b905062000673828262000623565b919050565b600067ffffffffffffffff821115620006965762000695620005f4565b5b620006a182620005e3565b9050602081019050919050565b60005b83811015620006ce578082015181840152602081019050620006b1565b60008484015250505050565b6000620006f1620006eb8462000678565b62000659565b90508281526020810184848401111562000710576200070f620005de565b5b6200071d848285620006ae565b509392505050565b600082601f8301126200073d576200073c620005d9565b5b81516200074f848260208601620006da565b91505092915050565b600073ffffffffffffffffffffffffffffffffffffffff82169050919050565b6000620007858262000758565b9050919050565b620007978162000778565b8114620007a357600080fd5b50565b600081519050620007b7816200078c565b92915050565b600080600060608486031215620007d957620007d8620005cf565b5b600084015167ffffffffffffffff811115620007fa57620007f9620005d4565b5b620008088682870162000725565b935050602084015167ffffffffffffffff8111156200082c576200082b620005d4565b5b6200083a8682870162000725565b92505060406200084d86828701620007a6565b9150509250925092565b600081519050919050565b7f4e487b7100000000000000000000000000000000000000000000000000000000600052602260045260246000fd5b60006002820490506001821680620008aa57607f821691505b602082108103620008c057620008bf62000862565b5b50919050565b60008190508160005260206000209050919050565b60006020601f8301049050919050565b600082821b905092915050565b6000600883026200092a7fffffffffffffffffffffffffffffffffffffffffffffffffffffffffffffffff82620008eb565b620009368683620008eb565b95508019841693508086168417925050509392505050565b6000819050919050565b6000819050919050565b6000620009836200097d62000977846200094e565b62000958565b6200094e565b9050919050565b6000819050919050565b6200099f8362000962565b620009b7620009ae826200098a565b848454620008f8565b825550505050565b600090565b620009ce620009bf565b620009db81848462000994565b505050565b5b8181101562000a0357620009f7600082620009c4565b600181019050620009e1565b5050565b601f82111562000a525762000a1c81620008c6565b62000a2784620008db565b8101602085101562000a37578190505b62000a4f62000a4685620008db565b830182620009e0565b50505b505050565b600082821c905092915050565b600062000a776000198460080262000a57565b1980831691505092915050565b600062000a92838362000a64565b9150826002028217905092915050565b62000aad8262000857565b67ffffffffffffffff81111562000ac95762000ac8620005f4565b5b62000ad5825462000891565b62000ae282828562000a07565b600060209050601f83116001811462000b1a576000841562000b05578287015190505b62000b11858262000a84565b86555062000b81565b601f19841662000b2a86620008c6565b60005b8281101562000b545784890151825560018201915060208501945060208101905062000b2d565b8683101562000b74578489015162000b70601f89168262000a64565b8355505b6001600288020188555050505b505050505050565b62000b948162000778565b82525050565b600060208201905062000bb1600083018462000b89565b92915050565b7f4e487b7100000000000000000000000000000000000000000000000000000000600052601160045260246000fd5b600062000bf3826200094e565b915062000c00836200094e565b925082820190508082111562000c1b5762000c1a62000bb7565b5b92915050565b62000c2c816200094e565b82525050565b600060608201905062000c49600083018662000b89565b62000c58602083018562000c21565b62000c67604083018462000c21565b949350505050565b600060208201905062000c86600083018462000c21565b92915050565b6121178062000c9c6000396000f3fe6080604052600436106101665760003560e01c806379cc6790116100d1578063b0db0e411161008a578063d3751e0311610064578063d3751e0314610523578063dd62ed3e14610560578063f2fde38b1461059d578063f905c15a146105c657610166565b8063b0db0e41146104c3578063b4f40c61146104cd578063bb24fe8a146104f857610166565b806379cc67901461039f5780638da5cb5b146103c857806392a88fa2146103f357806395d89b4114610430578063a56dfe4a1461045b578063a9059cbb1461048657610166565b806323b872dd1161012357806323b872dd14610291578063313ce567146102ce57806342966c68146102f957806343601eda1461032257806370a082311461034b578063715018a61461038857610166565b806306fdde031461016b578063095ea7b3146101965780630c55699c146101d357806312d697b6146101fe57806318160ddd1461022957806322d4a5b714610254575b600080fd5b34801561017757600080fd5b506101806105f1565b60405161018d91906119d5565b60405180910390f35b3480156101a257600080fd5b506101bd60048036038101906101b89190611a90565b610683565b6040516101ca9190611aeb565b60405180910390f35b3480156101df57600080fd5b506101e86106a6565b6040516101f59190611b15565b60405180910390f35b34801561020a57600080fd5b506102136106ac565b6040516102209190611b15565b60405180910390f35b34801561023557600080fd5b5061023e6106b2565b60405161024b9190611b15565b60405180910390f35b34801561026057600080fd5b5061027b60048036038101906102769190611b30565b6106bc565b6040516102889190611b15565b60405180910390f35b34801561029d57600080fd5b506102b860048036038101906102b39190611b5d565b6106e5565b6040516102c59190611aeb565b60405180910390f35b3480156102da57600080fd5b506102e3610714565b6040516102f09190611bcc565b60405180910390f35b34801561030557600080fd5b50610320600480360381019061031b9190611b30565b61071d565b005b34801561032e57600080fd5b5061034960048036038101906103449190611b30565b610731565b005b34801561035757600080fd5b50610372600480360381019061036d9190611be7565b61095f565b60405161037f9190611b15565b60405180910390f35b34801561039457600080fd5b5061039d6109a7565b005b3480156103ab57600080fd5b506103c660048036038101906103c19190611a90565b6109bb565b005b3480156103d457600080fd5b506103dd6109db565b6040516103ea9190611c23565b60405180910390f35b3480156103ff57600080fd5b5061041a60048036038101906104159190611be7565b610a05565b6040516104279190611aeb565b60405180910390f35b34801561043c57600080fd5b50610445610a25565b60405161045291906119d5565b60405180910390f35b34801561046757600080fd5b50610470610ab7565b60405161047d9190611b15565b60405180910390f35b34801561049257600080fd5b506104ad60048036038101906104a89190611a90565b610abd565b6040516104ba9190611aeb565b60405180910390f35b6104cb610ae0565b005b3480156104d957600080fd5b506104e2610ce5565b6040516104ef9190611b15565b60405180910390f35b34801561050457600080fd5b5061050d610ceb565b60405161051a91906119d5565b60405180910390f35b34801561052f57600080fd5b5061054a60048036038101906105459190611b30565b610d24565b6040516105579190611b15565b60405180910390f35b34801561056c57600080fd5b5061058760048036038101906105829190611c3e565b610d4d565b6040516105949190611b15565b60405180910390f35b3480156105a957600080fd5b506105c460048036038101906105bf9190611be7565b610dd4565b005b3480156105d257600080fd5b506105db610e5a565b6040516105e89190611aeb565b60405180910390f35b60606003805461060090611cad565b80601f016020809104026020016040519081016040528092919081815260200182805461062c90611cad565b80156106795780601f1061064e57610100808354040283529160200191610679565b820191906000526020600020905b81548152906001019060200180831161065c57829003601f168201915b5050505050905090565b60008061068e610e6d565b905061069b818585610e75565b600191505092915050565b60085481565b60075481565b6000600254905090565b6000808260095401600a54816106d5576106d4611cde565b5b0490508060085403915050919050565b6000806106f0610e6d565b90506106fd858285610e87565b610708858585610f1b565b60019150509392505050565b60006012905090565b61072e610728610e6d565b8261100f565b50565b60008111610774576040517f08c379a000000000000000000000000000000000000000000000000000000000815260040161076b90611d59565b60405180910390fd5b60001515600e60149054906101000a900460ff161515146107ca576040517f08c379a00000000000000000000000000000000000000000000000000000000081526004016107c190611dc5565b60405180910390fd5b60006107d582610d24565b90508160086000828254019250508190555080600960008282540392505081905550600c60009054906101000a900473ffffffffffffffffffffffffffffffffffffffff1673ffffffffffffffffffffffffffffffffffffffff1633838360405160240161084593929190611de5565b6040516020818303038152906040527f88ae3c6b000000000000000000000000000000000000000000000000000000007bffffffffffffffffffffffffffffffffffffffffffffffffffffffff19166020820180517bffffffffffffffffffffffffffffffffffffffffffffffffffffffff83818316178352505050506040516108cf9190611e63565b6000604051808303816000865af19150503d806000811461090c576040519150601f19603f3d011682016040523d82523d6000602084013e610911565b606091505b5050503373ffffffffffffffffffffffffffffffffffffffff166108fc829081150290604051600060405180830381858888f1935050505015801561095a573d6000803e3d6000fd5b505050565b60008060008373ffffffffffffffffffffffffffffffffffffffff1673ffffffffffffffffffffffffffffffffffffffff168152602001908152602001600020549050919050565b6109af611091565b6109b96000611118565b565b6109cd826109c7610e6d565b83610e87565b6109d7828261100f565b5050565b6000600560009054906101000a900473ffffffffffffffffffffffffffffffffffffffff16905090565b60066020528060005260406000206000915054906101000a900460ff1681565b606060048054610a3490611cad565b80601f0160208091040260200160405190810160405280929190818152602001828054610a6090611cad565b8015610aad5780601f10610a8257610100808354040283529160200191610aad565b820191906000526020600020905b815481529060010190602001808311610a9057829003601f168201915b5050505050905090565b60095481565b600080610ac8610e6d565b9050610ad5818585610f1b565b600191505092915050565b60003411610b23576040517f08c379a0000000000000000000000000000000000000000000000000000000008152600401610b1a90611d59565b60405180910390fd5b60001515600e60149054906101000a900460ff16151514610b79576040517f08c379a0000000000000000000000000000000000000000000000000000000008152600401610b7090611dc5565b60405180910390fd5b6000610b84346106bc565b9050346009600082825401925050819055508060086000828254039250508190555060075460095410610bba57610bb96111de565b5b600c60009054906101000a900473ffffffffffffffffffffffffffffffffffffffff1673ffffffffffffffffffffffffffffffffffffffff16338234604051602401610c0893929190611de5565b6040516020818303038152906040527f4e3f0a01000000000000000000000000000000000000000000000000000000007bffffffffffffffffffffffffffffffffffffffffffffffffffffffff19166020820180517bffffffffffffffffffffffffffffffffffffffffffffffffffffffff8381831617835250505050604051610c929190611e63565b6000604051808303816000865af19150503d8060008114610ccf576040519150601f19603f3d011682016040523d82523d6000602084013e610cd4565b606091505b505050610ce2303383610f1b565b50565b600a5481565b6040518060400160405280600b81526020017f50756d706572546f6b656e00000000000000000000000000000000000000000081525081565b6000808260085401600a5481610d3d57610d3c611cde565b5b0490508060095403915050919050565b6000600160008473ffffffffffffffffffffffffffffffffffffffff1673ffffffffffffffffffffffffffffffffffffffff16815260200190815260200160002060008373ffffffffffffffffffffffffffffffffffffffff1673ffffffffffffffffffffffffffffffffffffffff16815260200190815260200160002054905092915050565b610ddc611091565b600073ffffffffffffffffffffffffffffffffffffffff168173ffffffffffffffffffffffffffffffffffffffff1603610e4e5760006040517f1e4fbdf7000000000000000000000000000000000000000000000000000000008152600401610e459190611c23565b60405180910390fd5b610e5781611118565b50565b600e60149054906101000a900460ff1681565b600033905090565b610e828383836001611526565b505050565b6000610e938484610d4d565b90507fffffffffffffffffffffffffffffffffffffffffffffffffffffffffffffffff8114610f155781811015610f05578281836040517ffb8f41b2000000000000000000000000000000000000000000000000000000008152600401610efc93929190611de5565b60405180910390fd5b610f1484848484036000611526565b5b50505050565b600073ffffffffffffffffffffffffffffffffffffffff168373ffffffffffffffffffffffffffffffffffffffff1603610f8d5760006040517f96c6fd1e000000000000000000000000000000000000000000000000000000008152600401610f849190611c23565b60405180910390fd5b600073ffffffffffffffffffffffffffffffffffffffff168273ffffffffffffffffffffffffffffffffffffffff1603610fff5760006040517fec442f05000000000000000000000000000000000000000000000000000000008152600401610ff69190611c23565b60405180910390fd5b61100a8383836116fd565b505050565b600073ffffffffffffffffffffffffffffffffffffffff168273ffffffffffffffffffffffffffffffffffffffff16036110815760006040517f96c6fd1e0000000000000000000000000000000000000000000000000000000081526004016110789190611c23565b60405180910390fd5b61108d826000836116fd565b5050565b611099610e6d565b73ffffffffffffffffffffffffffffffffffffffff166110b76109db565b73ffffffffffffffffffffffffffffffffffffffff1614611116576110da610e6d565b6040517f118cdaa700000000000000000000000000000000000000000000000000000000815260040161110d9190611c23565b60405180910390fd5b565b6000600560009054906101000a900473ffffffffffffffffffffffffffffffffffffffff16905081600560006101000a81548173ffffffffffffffffffffffffffffffffffffffff021916908373ffffffffffffffffffffffffffffffffffffffff1602179055508173ffffffffffffffffffffffffffffffffffffffff168173ffffffffffffffffffffffffffffffffffffffff167f8be0079c531659141344cd1fd0a4f28419497f9722a3daafe3b4186f6b6457e060405160405180910390a35050565b6000600d60009054906101000a900473ffffffffffffffffffffffffffffffffffffffff1673ffffffffffffffffffffffffffffffffffffffff1663171223dd73ffffffffffffffffffffffffffffffffffffffff60001b7feeeeeeeeeeeeeeeeeeeeeeeeeeeeeeeeeeeeeeeeeeeeeeeeeeeeeeeeeeeeeeee60001b1661126430611922565b6040518363ffffffff1660e01b8152600401611281929190611ea5565b6020604051808303816000875af11580156112a0573d6000803e3d6000fd5b505050506040513d601f19601f820116820180604052508101906112c49190611ee3565b905061131330600e60009054906101000a900473ffffffffffffffffffffffffffffffffffffffff167fffffffffffffffffffffffffffffffffffffffffffffffffffffffffffffffff610e75565b6000678ac7230489e8000060095461132b9190611f3f565b9050600e60009054906101000a900473ffffffffffffffffffffffffffffffffffffffff1673ffffffffffffffffffffffffffffffffffffffff16635a47ddc382306000804787600080307fffffffffffffffffffffffffffffffffffffffffffffffffffffffffffffffff6040518b63ffffffff1660e01b81526004016113bb99989796959493929190611fb8565b60606040518083038185885af11580156113d9573d6000803e3d6000fd5b50505050506040513d601f19601f820116820180604052508101906113fe919061205a565b505050600c60009054906101000a900473ffffffffffffffffffffffffffffffffffffffff1673ffffffffffffffffffffffffffffffffffffffff168260085460095460405160240161145393929190611de5565b6040516020818303038152906040527f4a7c974b000000000000000000000000000000000000000000000000000000007bffffffffffffffffffffffffffffffffffffffffffffffffffffffff19166020820180517bffffffffffffffffffffffffffffffffffffffffffffffffffffffff83818316178352505050506040516114dd9190611e63565b6000604051808303816000865af19150503d806000811461151a576040519150601f19603f3d011682016040523d82523d6000602084013e61151f565b606091505b5050505050565b600073ffffffffffffffffffffffffffffffffffffffff168473ffffffffffffffffffffffffffffffffffffffff16036115985760006040517fe602df0500000000000000000000000000000000000000000000000000000000815260040161158f9190611c23565b60405180910390fd5b600073ffffffffffffffffffffffffffffffffffffffff168373ffffffffffffffffffffffffffffffffffffffff160361160a5760006040517f94280d620000000000000000000000000000000000000000000000000000000081526004016116019190611c23565b60405180910390fd5b81600160008673ffffffffffffffffffffffffffffffffffffffff1673ffffffffffffffffffffffffffffffffffffffff16815260200190815260200160002060008573ffffffffffffffffffffffffffffffffffffffff1673ffffffffffffffffffffffffffffffffffffffff1681526020019081526020016000208190555080156116f7578273ffffffffffffffffffffffffffffffffffffffff168473ffffffffffffffffffffffffffffffffffffffff167f8c5be1e5ebec7d5bd14f71427d1e84f3dd0314c0f7b2291e5b200ac8c7c3b925846040516116ee9190611b15565b60405180910390a35b50505050565b600073ffffffffffffffffffffffffffffffffffffffff168373ffffffffffffffffffffffffffffffffffffffff160361174f57806002600082825461174391906120ad565b92505081905550611822565b60008060008573ffffffffffffffffffffffffffffffffffffffff1673ffffffffffffffffffffffffffffffffffffffff168152602001908152602001600020549050818110156117db578381836040517fe450d38c0000000000000000000000000000000000000000000000000000000081526004016117d293929190611de5565b60405180910390fd5b8181036000808673ffffffffffffffffffffffffffffffffffffffff1673ffffffffffffffffffffffffffffffffffffffff16815260200190815260200160002081905550505b600073ffffffffffffffffffffffffffffffffffffffff168273ffffffffffffffffffffffffffffffffffffffff160361186b57806002600082825403925050819055506118b8565b806000808473ffffffffffffffffffffffffffffffffffffffff1673ffffffffffffffffffffffffffffffffffffffff168152602001908152602001600020600082825401925050819055505b8173ffffffffffffffffffffffffffffffffffffffff168373ffffffffffffffffffffffffffffffffffffffff167fddf252ad1be2c89b69c2b068fc378daa952ba7f163c4a11628f55a4df523b3ef836040516119159190611b15565b60405180910390a3505050565b60008173ffffffffffffffffffffffffffffffffffffffff1660001b9050919050565b600081519050919050565b600082825260208201905092915050565b60005b8381101561197f578082015181840152602081019050611964565b60008484015250505050565b6000601f19601f8301169050919050565b60006119a782611945565b6119b18185611950565b93506119c1818560208601611961565b6119ca8161198b565b840191505092915050565b600060208201905081810360008301526119ef818461199c565b905092915050565b600080fd5b600073ffffffffffffffffffffffffffffffffffffffff82169050919050565b6000611a27826119fc565b9050919050565b611a3781611a1c565b8114611a4257600080fd5b50565b600081359050611a5481611a2e565b92915050565b6000819050919050565b611a6d81611a5a565b8114611a7857600080fd5b50565b600081359050611a8a81611a64565b92915050565b60008060408385031215611aa757611aa66119f7565b5b6000611ab585828601611a45565b9250506020611ac685828601611a7b565b9150509250929050565b60008115159050919050565b611ae581611ad0565b82525050565b6000602082019050611b006000830184611adc565b92915050565b611b0f81611a5a565b82525050565b6000602082019050611b2a6000830184611b06565b92915050565b600060208284031215611b4657611b456119f7565b5b6000611b5484828501611a7b565b91505092915050565b600080600060608486031215611b7657611b756119f7565b5b6000611b8486828701611a45565b9350506020611b9586828701611a45565b9250506040611ba686828701611a7b565b9150509250925092565b600060ff82169050919050565b611bc681611bb0565b82525050565b6000602082019050611be16000830184611bbd565b92915050565b600060208284031215611bfd57611bfc6119f7565b5b6000611c0b84828501611a45565b91505092915050565b611c1d81611a1c565b82525050565b6000602082019050611c386000830184611c14565b92915050565b60008060408385031215611c5557611c546119f7565b5b6000611c6385828601611a45565b9250506020611c7485828601611a45565b9150509250929050565b7f4e487b7100000000000000000000000000000000000000000000000000000000600052602260045260246000fd5b60006002820490506001821680611cc557607f821691505b602082108103611cd857611cd7611c7e565b5b50919050565b7f4e487b7100000000000000000000000000000000000000000000000000000000600052601260045260246000fd5b7f496e76616c696420616d6f756e74000000000000000000000000000000000000600082015250565b6000611d43600e83611950565b9150611d4e82611d0d565b602082019050919050565b60006020820190508181036000830152611d7281611d36565b9050919050565b7f4c697175696469747920616c7265616479206465706c6f796564000000000000600082015250565b6000611daf601a83611950565b9150611dba82611d79565b602082019050919050565b60006020820190508181036000830152611dde81611da2565b9050919050565b6000606082019050611dfa6000830186611c14565b611e076020830185611b06565b611e146040830184611b06565b949350505050565b600081519050919050565b600081905092915050565b6000611e3d82611e1c565b611e478185611e27565b9350611e57818560208601611961565b80840191505092915050565b6000611e6f8284611e32565b915081905092915050565b6000819050919050565b6000611e8f82611e7a565b9050919050565b611e9f81611e84565b82525050565b6000604082019050611eba6000830185611e96565b611ec76020830184611e96565b9392505050565b600081519050611edd81611a2e565b92915050565b600060208284031215611ef957611ef86119f7565b5b6000611f0784828501611ece565b91505092915050565b7f4e487b7100000000000000000000000000000000000000000000000000000000600052601160045260246000fd5b6000611f4a82611a5a565b9150611f5583611a5a565b9250828203905081811115611f6d57611f6c611f10565b5b92915050565b6000819050919050565b6000819050919050565b6000611fa2611f9d611f9884611f73565b611f7d565b611a5a565b9050919050565b611fb281611f87565b82525050565b600061012082019050611fce600083018c611c14565b611fdb602083018b611c14565b611fe8604083018a611adc565b611ff56060830189611b06565b6120026080830188611b06565b61200f60a0830187611fa9565b61201c60c0830186611fa9565b61202960e0830185611c14565b612037610100830184611b06565b9a9950505050505050505050565b60008151905061205481611a64565b92915050565b600080600060608486031215612073576120726119f7565b5b600061208186828701612045565b935050602061209286828701612045565b92505060406120a386828701612045565b9150509250925092565b60006120b882611a5a565b91506120c383611a5a565b92508282019050808211156120db576120da611f10565b5b9291505056fea2646970667358221220f4fb617c12cc461a7d14c9ff59db0b8699dcd8c4c6ae2b9f62ecf5c037fbd41064736f6c63430008180033a2646970667358221220801002a14834de12e320fa36340f76938d612e4b20cc584b7dc7061c70c1507a64736f6c63430008180033",
	"linkReferences": {},
	"deployedLinkReferences": {}
}