{
	"_format": "hh-sol-artifact-1",
	"contractName": "PumperFactory",
	"sourceName": "contracts/PumperFactory.sol",
	"testnetAddress": "0xe818A9FF6fb28EC94794598b73938eA7ab42493a",
	"abi": [
		{
			"anonymous": false,
			"inputs": [
				{
					"indexed": true,
					"internalType": "address",
					"name": "token",
					"type": "address"
				},
				{
					"indexed": true,
					"internalType": "address",
					"name": "buyer",
					"type": "address"
				},
				{
					"indexed": false,
					"internalType": "uint256",
					"name": "amount",
					"type": "uint256"
				},
				{
					"indexed": false,
					"internalType": "uint256",
					"name": "price",
					"type": "uint256"
				}
			],
			"name": "Buy",
			"type": "event"
		},
		{
			"anonymous": false,
			"inputs": [
				{
					"indexed": true,
					"internalType": "address",
					"name": "token",
					"type": "address"
				},
				{
					"indexed": true,
					"internalType": "address",
					"name": "pool",
					"type": "address"
				},
				{
					"indexed": false,
					"internalType": "uint256",
					"name": "x",
					"type": "uint256"
				},
				{
					"indexed": false,
					"internalType": "uint256",
					"name": "y",
					"type": "uint256"
				}
			],
			"name": "LiquidtyDeployed",
			"type": "event"
		},
		{
			"anonymous": false,
			"inputs": [
				{
					"indexed": true,
					"internalType": "address",
					"name": "creator",
					"type": "address"
				},
				{
					"indexed": true,
					"internalType": "address",
					"name": "token",
					"type": "address"
				}
			],
			"name": "NewPumpToken",
			"type": "event"
		},
		{
			"anonymous": false,
			"inputs": [
				{
					"indexed": true,
					"internalType": "address",
					"name": "token",
					"type": "address"
				},
				{
					"indexed": true,
					"internalType": "address",
					"name": "seller",
					"type": "address"
				},
				{
					"indexed": false,
					"internalType": "uint256",
					"name": "amount",
					"type": "uint256"
				},
				{
					"indexed": false,
					"internalType": "uint256",
					"name": "price",
					"type": "uint256"
				}
			],
			"name": "Sell",
			"type": "event"
		},
		{
			"inputs": [
				{
					"internalType": "string",
					"name": "name",
					"type": "string"
				},
				{
					"internalType": "string",
					"name": "symbol",
					"type": "string"
				}
			],
			"name": "createPumpToken",
			"outputs": [
				{
					"internalType": "address",
					"name": "",
					"type": "address"
				}
			],
			"stateMutability": "nonpayable",
			"type": "function"
		},
		{
			"inputs": [
				{
					"internalType": "address",
					"name": "",
					"type": "address"
				},
				{
					"internalType": "uint256",
					"name": "",
					"type": "uint256"
				}
			],
			"name": "deployedPumpTokens",
			"outputs": [
				{
					"internalType": "address",
					"name": "",
					"type": "address"
				}
			],
			"stateMutability": "view",
			"type": "function"
		},
		{
			"inputs": [
				{
					"internalType": "uint256",
					"name": "amount",
					"type": "uint256"
				},
				{
					"internalType": "uint256",
					"name": "price",
					"type": "uint256"
				}
			],
			"name": "emitBuy",
			"outputs": [],
			"stateMutability": "nonpayable",
			"type": "function"
		},
		{
			"inputs": [
				{
					"internalType": "address",
					"name": "pool",
					"type": "address"
				},
				{
					"internalType": "uint256",
					"name": "x",
					"type": "uint256"
				},
				{
					"internalType": "uint256",
					"name": "y",
					"type": "uint256"
				}
			],
			"name": "emitLiquidtyDeployed",
			"outputs": [],
			"stateMutability": "nonpayable",
			"type": "function"
		},
		{
			"inputs": [
				{
					"internalType": "uint256",
					"name": "amount",
					"type": "uint256"
				},
				{
					"internalType": "uint256",
					"name": "price",
					"type": "uint256"
				}
			],
			"name": "emitSell",
			"outputs": [],
			"stateMutability": "nonpayable",
			"type": "function"
		},
		{
			"inputs": [
				{
					"internalType": "bytes",
					"name": "_bytecode",
					"type": "bytes"
				},
				{
					"internalType": "uint256",
					"name": "_salt",
					"type": "uint256"
				}
			],
			"name": "getAddressBeforeDeployment",
			"outputs": [
				{
					"internalType": "address",
					"name": "",
					"type": "address"
				}
			],
			"stateMutability": "view",
			"type": "function"
		},
		{
			"inputs": [
				{
					"internalType": "string",
					"name": "name",
					"type": "string"
				},
				{
					"internalType": "string",
					"name": "symbol",
					"type": "string"
				}
			],
			"name": "getBytecode",
			"outputs": [
				{
					"internalType": "bytes",
					"name": "",
					"type": "bytes"
				}
			],
			"stateMutability": "view",
			"type": "function"
		},
		{
			"inputs": [
				{
					"internalType": "address",
					"name": "_creator",
					"type": "address"
				}
			],
			"name": "getDeployedPumpTokens",
			"outputs": [
				{
					"internalType": "address[]",
					"name": "",
					"type": "address[]"
				}
			],
			"stateMutability": "view",
			"type": "function"
		},
		{
			"inputs": [
				{
					"internalType": "address",
					"name": "_creator",
					"type": "address"
				}
			],
			"name": "getDeployedPumpTokensLen",
			"outputs": [
				{
					"internalType": "uint256",
					"name": "",
					"type": "uint256"
				}
			],
			"stateMutability": "view",
			"type": "function"
		}
	],
	"bytecode": "0x608060405234801561001057600080fd5b50613d5f806100206000396000f3fe60806040523480156200001157600080fd5b5060043610620000a05760003560e01c80637814e750116200006f5780637814e7501462000167578063a286cb1e146200019d578063b9040c4014620001d3578063cee1fc6c14620001f3578063d0d579ab146200021357620000a0565b80631b00769914620000a557806337a9894614620000db5780634a7c974b14620001115780636ffc74361462000131575b600080fd5b620000c36004803603810190620000bd919062000813565b62000249565b604051620000d291906200086b565b60405180910390f35b620000f96004803603810190620000f3919062000888565b62000298565b60405162000108919062000988565b60405180910390f35b6200012f6004803603810190620001299190620009ac565b62000366565b005b6200014f600480360381019062000149919062000b6a565b620003d4565b6040516200015e91906200086b565b60405180910390f35b6200018560048036038101906200017f919062000888565b62000420565b60405162000194919062000be1565b60405180910390f35b620001bb6004803603810190620001b5919062000cb2565b6200046b565b604051620001ca91906200086b565b60405180910390f35b620001f16004803603810190620001eb919062000d37565b620005f9565b005b6200021160048036038101906200020b919062000d37565b62000666565b005b6200023160048036038101906200022b919062000cb2565b620006d3565b60405162000240919062000e07565b60405180910390f35b600060205281600052604060002081815481106200026657600080fd5b906000526020600020016000915091509054906101000a900473ffffffffffffffffffffffffffffffffffffffff1681565b60606000808373ffffffffffffffffffffffffffffffffffffffff1673ffffffffffffffffffffffffffffffffffffffff1681526020019081526020016000208054806020026020016040519081016040528092919081815260200182805480156200035a57602002820191906000526020600020905b8160009054906101000a900473ffffffffffffffffffffffffffffffffffffffff1673ffffffffffffffffffffffffffffffffffffffff16815260200190600101908083116200030f575b50505050509050919050565b8273ffffffffffffffffffffffffffffffffffffffff163073ffffffffffffffffffffffffffffffffffffffff167f9b80ee867189f7055a5862aa9548beeb8878c56c834514fb3165ef48446eb9888484604051620003c792919062000e2b565b60405180910390a3505050565b60008060ff60f81b30848680519060200120604051602001620003fb949392919062000f4d565b6040516020818303038152906040528051906020012090508060001c91505092915050565b60008060008373ffffffffffffffffffffffffffffffffffffffff1673ffffffffffffffffffffffffffffffffffffffff168152602001908152602001600020805490509050919050565b6000806000803373ffffffffffffffffffffffffffffffffffffffff1673ffffffffffffffffffffffffffffffffffffffff1681526020019081526020016000208054905060001b848430604051620004c49062000751565b620004d29392919062001000565b8190604051809103906000f5905080158015620004f3573d6000803e3d6000fd5b5090506000803373ffffffffffffffffffffffffffffffffffffffff1673ffffffffffffffffffffffffffffffffffffffff168152602001908152602001600020819080600181540180825580915050600190039060005260206000200160009091909190916101000a81548173ffffffffffffffffffffffffffffffffffffffff021916908373ffffffffffffffffffffffffffffffffffffffff1602179055508073ffffffffffffffffffffffffffffffffffffffff163373ffffffffffffffffffffffffffffffffffffffff167fc24da6acf73e7364c8cfd875ecc71c2e3f2e5727ee65767d0605e14a1de7494960405160405180910390a38091505092915050565b3273ffffffffffffffffffffffffffffffffffffffff163073ffffffffffffffffffffffffffffffffffffffff167fa082022e93cfcd9f1da5f9236718053910f7e840da080c789c7845698dc032ff84846040516200065a92919062000e2b565b60405180910390a35050565b3273ffffffffffffffffffffffffffffffffffffffff163073ffffffffffffffffffffffffffffffffffffffff167f89f5adc174562e07c9c9b1cae7109bbecb21cf9d1b2847e550042b8653c54a0e8484604051620006c792919062000e2b565b60405180910390a35050565b6060600060405180602001620006e99062000751565b6020820181038252601f19601f82011660405250905080848430604051602001620007179392919062001000565b604051602081830303815290604052604051602001620007399291906200108d565b60405160208183030381529060405291505092915050565b612c7480620010b683390190565b6000604051905090565b600080fd5b600080fd5b600073ffffffffffffffffffffffffffffffffffffffff82169050919050565b6000620007a08262000773565b9050919050565b620007b28162000793565b8114620007be57600080fd5b50565b600081359050620007d281620007a7565b92915050565b6000819050919050565b620007ed81620007d8565b8114620007f957600080fd5b50565b6000813590506200080d81620007e2565b92915050565b600080604083850312156200082d576200082c62000769565b5b60006200083d85828601620007c1565b92505060206200085085828601620007fc565b9150509250929050565b620008658162000793565b82525050565b60006020820190506200088260008301846200085a565b92915050565b600060208284031215620008a157620008a062000769565b5b6000620008b184828501620007c1565b91505092915050565b600081519050919050565b600082825260208201905092915050565b6000819050602082019050919050565b620008f18162000793565b82525050565b6000620009058383620008e6565b60208301905092915050565b6000602082019050919050565b60006200092b82620008ba565b620009378185620008c5565b93506200094483620008d6565b8060005b838110156200097b5781516200095f8882620008f7565b97506200096c8362000911565b92505060018101905062000948565b5085935050505092915050565b60006020820190508181036000830152620009a481846200091e565b905092915050565b600080600060608486031215620009c857620009c762000769565b5b6000620009d886828701620007c1565b9350506020620009eb86828701620007fc565b9250506040620009fe86828701620007fc565b9150509250925092565b600080fd5b600080fd5b6000601f19601f8301169050919050565b7f4e487b7100000000000000000000000000000000000000000000000000000000600052604160045260246000fd5b62000a5d8262000a12565b810181811067ffffffffffffffff8211171562000a7f5762000a7e62000a23565b5b80604052505050565b600062000a946200075f565b905062000aa2828262000a52565b919050565b600067ffffffffffffffff82111562000ac55762000ac462000a23565b5b62000ad08262000a12565b9050602081019050919050565b82818337600083830152505050565b600062000b0362000afd8462000aa7565b62000a88565b90508281526020810184848401111562000b225762000b2162000a0d565b5b62000b2f84828562000add565b509392505050565b600082601f83011262000b4f5762000b4e62000a08565b5b813562000b6184826020860162000aec565b91505092915050565b6000806040838503121562000b845762000b8362000769565b5b600083013567ffffffffffffffff81111562000ba55762000ba46200076e565b5b62000bb38582860162000b37565b925050602062000bc685828601620007fc565b9150509250929050565b62000bdb81620007d8565b82525050565b600060208201905062000bf8600083018462000bd0565b92915050565b600067ffffffffffffffff82111562000c1c5762000c1b62000a23565b5b62000c278262000a12565b9050602081019050919050565b600062000c4b62000c458462000bfe565b62000a88565b90508281526020810184848401111562000c6a5762000c6962000a0d565b5b62000c7784828562000add565b509392505050565b600082601f83011262000c975762000c9662000a08565b5b813562000ca984826020860162000c34565b91505092915050565b6000806040838503121562000ccc5762000ccb62000769565b5b600083013567ffffffffffffffff81111562000ced5762000cec6200076e565b5b62000cfb8582860162000c7f565b925050602083013567ffffffffffffffff81111562000d1f5762000d1e6200076e565b5b62000d2d8582860162000c7f565b9150509250929050565b6000806040838503121562000d515762000d5062000769565b5b600062000d6185828601620007fc565b925050602062000d7485828601620007fc565b9150509250929050565b600081519050919050565b600082825260208201905092915050565b60005b8381101562000dba57808201518184015260208101905062000d9d565b60008484015250505050565b600062000dd38262000d7e565b62000ddf818562000d89565b935062000df181856020860162000d9a565b62000dfc8162000a12565b840191505092915050565b6000602082019050818103600083015262000e23818462000dc6565b905092915050565b600060408201905062000e42600083018562000bd0565b62000e51602083018462000bd0565b9392505050565b60007fff0000000000000000000000000000000000000000000000000000000000000082169050919050565b6000819050919050565b62000ea362000e9d8262000e58565b62000e84565b82525050565b60008160601b9050919050565b600062000ec38262000ea9565b9050919050565b600062000ed78262000eb6565b9050919050565b62000ef362000eed8262000793565b62000eca565b82525050565b6000819050919050565b62000f1862000f1282620007d8565b62000ef9565b82525050565b6000819050919050565b6000819050919050565b62000f4762000f418262000f1e565b62000f28565b82525050565b600062000f5b828762000e8e565b60018201915062000f6d828662000ede565b60148201915062000f7f828562000f03565b60208201915062000f91828462000f32565b60208201915081905095945050505050565b600081519050919050565b600082825260208201905092915050565b600062000fcc8262000fa3565b62000fd8818562000fae565b935062000fea81856020860162000d9a565b62000ff58162000a12565b840191505092915050565b600060608201905081810360008301526200101c818662000fbf565b9050818103602083015262001032818562000fbf565b90506200104360408301846200085a565b949350505050565b600081905092915050565b6000620010638262000d7e565b6200106f81856200104b565b93506200108181856020860162000d9a565b80840191505092915050565b60006200109b828562001056565b9150620010a9828462001056565b9150819050939250505056fe6080604052678b78c5c0b8ad0000600755678ac7230489e80000600955731ccc7382d46313c24e1d13510b1c9445a792f4d4600d60006101000a81548173ffffffffffffffffffffffffffffffffffffffff021916908373ffffffffffffffffffffffffffffffffffffffff16021790555073b97582dcb6f2866098ca210095a04df3e11b76a6600e60006101000a81548173ffffffffffffffffffffffffffffffffffffffff021916908373ffffffffffffffffffffffffffffffffffffffff1602179055506000600e60146101000a81548160ff0219169083151502179055506000600f55348015620000f357600080fd5b5060405162002c7438038062002c748339818101604052810190620001199190620007c2565b33838381600390816200012d919062000aa7565b5080600490816200013f919062000aa7565b505050600073ffffffffffffffffffffffffffffffffffffffff168173ffffffffffffffffffffffffffffffffffffffff1603620001b75760006040517f1e4fbdf7000000000000000000000000000000000000000000000000000000008152600401620001ae919062000b9f565b60405180910390fd5b620001c8816200024760201b60201c565b506b033b2e3c9fd0803ce8000000600881905550620001f0306008546200030d60201b60201c565b60095460085402600a8190555080600c60006101000a81548173ffffffffffffffffffffffffffffffffffffffff021916908373ffffffffffffffffffffffffffffffffffffffff16021790555050505062000c91565b6000600560009054906101000a900473ffffffffffffffffffffffffffffffffffffffff16905081600560006101000a81548173ffffffffffffffffffffffffffffffffffffffff021916908373ffffffffffffffffffffffffffffffffffffffff1602179055508173ffffffffffffffffffffffffffffffffffffffff168173ffffffffffffffffffffffffffffffffffffffff167f8be0079c531659141344cd1fd0a4f28419497f9722a3daafe3b4186f6b6457e060405160405180910390a35050565b600073ffffffffffffffffffffffffffffffffffffffff168273ffffffffffffffffffffffffffffffffffffffff1603620003825760006040517fec442f0500000000000000000000000000000000000000000000000000000000815260040162000379919062000b9f565b60405180910390fd5b62000396600083836200039a60201b60201c565b5050565b600073ffffffffffffffffffffffffffffffffffffffff168373ffffffffffffffffffffffffffffffffffffffff1603620003f0578060026000828254620003e3919062000beb565b92505081905550620004c6565b60008060008573ffffffffffffffffffffffffffffffffffffffff1673ffffffffffffffffffffffffffffffffffffffff168152602001908152602001600020549050818110156200047f578381836040517fe450d38c000000000000000000000000000000000000000000000000000000008152600401620004769392919062000c37565b60405180910390fd5b8181036000808673ffffffffffffffffffffffffffffffffffffffff1673ffffffffffffffffffffffffffffffffffffffff16815260200190815260200160002081905550505b600073ffffffffffffffffffffffffffffffffffffffff168273ffffffffffffffffffffffffffffffffffffffff16036200051157806002600082825403925050819055506200055e565b806000808473ffffffffffffffffffffffffffffffffffffffff1673ffffffffffffffffffffffffffffffffffffffff168152602001908152602001600020600082825401925050819055505b8173ffffffffffffffffffffffffffffffffffffffff168373ffffffffffffffffffffffffffffffffffffffff167fddf252ad1be2c89b69c2b068fc378daa952ba7f163c4a11628f55a4df523b3ef83604051620005bd919062000c74565b60405180910390a3505050565b6000604051905090565b600080fd5b600080fd5b600080fd5b600080fd5b6000601f19601f8301169050919050565b7f4e487b7100000000000000000000000000000000000000000000000000000000600052604160045260246000fd5b6200063382620005e8565b810181811067ffffffffffffffff82111715620006555762000654620005f9565b5b80604052505050565b60006200066a620005ca565b905062000678828262000628565b919050565b600067ffffffffffffffff8211156200069b576200069a620005f9565b5b620006a682620005e8565b9050602081019050919050565b60005b83811015620006d3578082015181840152602081019050620006b6565b60008484015250505050565b6000620006f6620006f0846200067d565b6200065e565b905082815260208101848484011115620007155762000714620005e3565b5b62000722848285620006b3565b509392505050565b600082601f830112620007425762000741620005de565b5b815162000754848260208601620006df565b91505092915050565b600073ffffffffffffffffffffffffffffffffffffffff82169050919050565b60006200078a826200075d565b9050919050565b6200079c816200077d565b8114620007a857600080fd5b50565b600081519050620007bc8162000791565b92915050565b600080600060608486031215620007de57620007dd620005d4565b5b600084015167ffffffffffffffff811115620007ff57620007fe620005d9565b5b6200080d868287016200072a565b935050602084015167ffffffffffffffff811115620008315762000830620005d9565b5b6200083f868287016200072a565b92505060406200085286828701620007ab565b9150509250925092565b600081519050919050565b7f4e487b7100000000000000000000000000000000000000000000000000000000600052602260045260246000fd5b60006002820490506001821680620008af57607f821691505b602082108103620008c557620008c462000867565b5b50919050565b60008190508160005260206000209050919050565b60006020601f8301049050919050565b600082821b905092915050565b6000600883026200092f7fffffffffffffffffffffffffffffffffffffffffffffffffffffffffffffffff82620008f0565b6200093b8683620008f0565b95508019841693508086168417925050509392505050565b6000819050919050565b6000819050919050565b600062000988620009826200097c8462000953565b6200095d565b62000953565b9050919050565b6000819050919050565b620009a48362000967565b620009bc620009b3826200098f565b848454620008fd565b825550505050565b600090565b620009d3620009c4565b620009e081848462000999565b505050565b5b8181101562000a0857620009fc600082620009c9565b600181019050620009e6565b5050565b601f82111562000a575762000a2181620008cb565b62000a2c84620008e0565b8101602085101562000a3c578190505b62000a5462000a4b85620008e0565b830182620009e5565b50505b505050565b600082821c905092915050565b600062000a7c6000198460080262000a5c565b1980831691505092915050565b600062000a97838362000a69565b9150826002028217905092915050565b62000ab2826200085c565b67ffffffffffffffff81111562000ace5762000acd620005f9565b5b62000ada825462000896565b62000ae782828562000a0c565b600060209050601f83116001811462000b1f576000841562000b0a578287015190505b62000b16858262000a89565b86555062000b86565b601f19841662000b2f86620008cb565b60005b8281101562000b595784890151825560018201915060208501945060208101905062000b32565b8683101562000b79578489015162000b75601f89168262000a69565b8355505b6001600288020188555050505b505050505050565b62000b99816200077d565b82525050565b600060208201905062000bb6600083018462000b8e565b92915050565b7f4e487b7100000000000000000000000000000000000000000000000000000000600052601160045260246000fd5b600062000bf88262000953565b915062000c058362000953565b925082820190508082111562000c205762000c1f62000bbc565b5b92915050565b62000c318162000953565b82525050565b600060608201905062000c4e600083018662000b8e565b62000c5d602083018562000c26565b62000c6c604083018462000c26565b949350505050565b600060208201905062000c8b600083018462000c26565b92915050565b611fd38062000ca16000396000f3fe6080604052600436106101815760003560e01c80638da5cb5b116100d1578063b0db0e411161008a578063d3751e0311610064578063d3751e0314610569578063dd62ed3e146105a6578063f2fde38b146105e3578063f905c15a1461060c57610181565b8063b0db0e4114610509578063b4f40c6114610513578063bb24fe8a1461053e57610181565b80638da5cb5b146103e357806392a88fa21461040e5780639358928b1461044b57806395d89b4114610476578063a56dfe4a146104a1578063a9059cbb146104cc57610181565b806323b872dd1161013e57806343601eda1161011857806343601eda1461033d57806370a0823114610366578063715018a6146103a357806379cc6790146103ba57610181565b806323b872dd146102ac578063313ce567146102e957806342966c681461031457610181565b806306fdde0314610186578063095ea7b3146101b15780630c55699c146101ee57806312d697b61461021957806318160ddd1461024457806322d4a5b71461026f575b600080fd5b34801561019257600080fd5b5061019b610637565b6040516101a891906118c6565b60405180910390f35b3480156101bd57600080fd5b506101d860048036038101906101d39190611981565b6106c9565b6040516101e591906119dc565b60405180910390f35b3480156101fa57600080fd5b506102036106ec565b6040516102109190611a06565b60405180910390f35b34801561022557600080fd5b5061022e6106f2565b60405161023b9190611a06565b60405180910390f35b34801561025057600080fd5b506102596106f8565b6040516102669190611a06565b60405180910390f35b34801561027b57600080fd5b5061029660048036038101906102919190611a21565b610702565b6040516102a39190611a06565b60405180910390f35b3480156102b857600080fd5b506102d360048036038101906102ce9190611a4e565b61072b565b6040516102e091906119dc565b60405180910390f35b3480156102f557600080fd5b506102fe61075a565b60405161030b9190611abd565b60405180910390f35b34801561032057600080fd5b5061033b60048036038101906103369190611a21565b610763565b005b34801561034957600080fd5b50610364600480360381019061035f9190611a21565b610777565b005b34801561037257600080fd5b5061038d60048036038101906103889190611ad8565b610930565b60405161039a9190611a06565b60405180910390f35b3480156103af57600080fd5b506103b8610978565b005b3480156103c657600080fd5b506103e160048036038101906103dc9190611981565b61098c565b005b3480156103ef57600080fd5b506103f86109ac565b6040516104059190611b14565b60405180910390f35b34801561041a57600080fd5b5061043560048036038101906104309190611ad8565b6109d6565b60405161044291906119dc565b60405180910390f35b34801561045757600080fd5b506104606109f6565b60405161046d9190611a06565b60405180910390f35b34801561048257600080fd5b5061048b6109fc565b60405161049891906118c6565b60405180910390f35b3480156104ad57600080fd5b506104b6610a8e565b6040516104c39190611a06565b60405180910390f35b3480156104d857600080fd5b506104f360048036038101906104ee9190611981565b610a94565b60405161050091906119dc565b60405180910390f35b610511610ab7565b005b34801561051f57600080fd5b50610528610c47565b6040516105359190611a06565b60405180910390f35b34801561054a57600080fd5b50610553610c4d565b60405161056091906118c6565b60405180910390f35b34801561057557600080fd5b50610590600480360381019061058b9190611a21565b610c86565b60405161059d9190611a06565b60405180910390f35b3480156105b257600080fd5b506105cd60048036038101906105c89190611b2f565b610caf565b6040516105da9190611a06565b60405180910390f35b3480156105ef57600080fd5b5061060a60048036038101906106059190611ad8565b610d36565b005b34801561061857600080fd5b50610621610dbc565b60405161062e91906119dc565b60405180910390f35b60606003805461064690611b9e565b80601f016020809104026020016040519081016040528092919081815260200182805461067290611b9e565b80156106bf5780601f10610694576101008083540402835291602001916106bf565b820191906000526020600020905b8154815290600101906020018083116106a257829003601f168201915b5050505050905090565b6000806106d4610dcf565b90506106e1818585610dd7565b600191505092915050565b60085481565b60075481565b6000600254905090565b6000808260095401600a548161071b5761071a611bcf565b5b0490508060085403915050919050565b600080610736610dcf565b9050610743858285610de9565b61074e858585610e7d565b60019150509392505050565b60006012905090565b61077461076e610dcf565b82610f71565b50565b600081116107ba576040517f08c379a00000000000000000000000000000000000000000000000000000000081526004016107b190611c4a565b60405180910390fd5b60001515600e60149054906101000a900460ff16151514610810576040517f08c379a000000000000000000000000000000000000000000000000000000000815260040161080790611cb6565b60405180910390fd5b600061081b82610c86565b90508160086000828254019250508190555080600960008282540392505081905550600c60009054906101000a900473ffffffffffffffffffffffffffffffffffffffff1673ffffffffffffffffffffffffffffffffffffffff1663cee1fc6c83836040518363ffffffff1660e01b815260040161089a929190611cd6565b600060405180830381600087803b1580156108b457600080fd5b505af11580156108c8573d6000803e3d6000fd5b505050503373ffffffffffffffffffffffffffffffffffffffff166108fc829081150290604051600060405180830381858888f19350505050158015610912573d6000803e3d6000fd5b5081600f60008282546109259190611d2e565b925050819055505050565b60008060008373ffffffffffffffffffffffffffffffffffffffff1673ffffffffffffffffffffffffffffffffffffffff168152602001908152602001600020549050919050565b610980610ff3565b61098a600061107a565b565b61099e82610998610dcf565b83610de9565b6109a88282610f71565b5050565b6000600560009054906101000a900473ffffffffffffffffffffffffffffffffffffffff16905090565b60066020528060005260406000206000915054906101000a900460ff1681565b600f5481565b606060048054610a0b90611b9e565b80601f0160208091040260200160405190810160405280929190818152602001828054610a3790611b9e565b8015610a845780601f10610a5957610100808354040283529160200191610a84565b820191906000526020600020905b815481529060010190602001808311610a6757829003601f168201915b5050505050905090565b60095481565b600080610a9f610dcf565b9050610aac818585610e7d565b600191505092915050565b60003411610afa576040517f08c379a0000000000000000000000000000000000000000000000000000000008152600401610af190611c4a565b60405180910390fd5b60001515600e60149054906101000a900460ff16151514610b50576040517f08c379a0000000000000000000000000000000000000000000000000000000008152600401610b4790611cb6565b60405180910390fd5b6000610b5b34610702565b9050346009600082825401925050819055508060086000828254039250508190555060075460095410610b9157610b90611140565b5b600c60009054906101000a900473ffffffffffffffffffffffffffffffffffffffff1673ffffffffffffffffffffffffffffffffffffffff1663cee1fc6c82346040518363ffffffff1660e01b8152600401610bee929190611cd6565b600060405180830381600087803b158015610c0857600080fd5b505af1158015610c1c573d6000803e3d6000fd5b50505050610c2b303383610e7d565b80600f6000828254610c3d9190611d62565b9250508190555050565b600a5481565b6040518060400160405280600b81526020017f50756d706572546f6b656e00000000000000000000000000000000000000000081525081565b6000808260085401600a5481610c9f57610c9e611bcf565b5b0490508060095403915050919050565b6000600160008473ffffffffffffffffffffffffffffffffffffffff1673ffffffffffffffffffffffffffffffffffffffff16815260200190815260200160002060008373ffffffffffffffffffffffffffffffffffffffff1673ffffffffffffffffffffffffffffffffffffffff16815260200190815260200160002054905092915050565b610d3e610ff3565b600073ffffffffffffffffffffffffffffffffffffffff168173ffffffffffffffffffffffffffffffffffffffff1603610db05760006040517f1e4fbdf7000000000000000000000000000000000000000000000000000000008152600401610da79190611b14565b60405180910390fd5b610db98161107a565b50565b600e60149054906101000a900460ff1681565b600033905090565b610de48383836001611417565b505050565b6000610df58484610caf565b90507fffffffffffffffffffffffffffffffffffffffffffffffffffffffffffffffff8114610e775781811015610e67578281836040517ffb8f41b2000000000000000000000000000000000000000000000000000000008152600401610e5e93929190611d96565b60405180910390fd5b610e7684848484036000611417565b5b50505050565b600073ffffffffffffffffffffffffffffffffffffffff168373ffffffffffffffffffffffffffffffffffffffff1603610eef5760006040517f96c6fd1e000000000000000000000000000000000000000000000000000000008152600401610ee69190611b14565b60405180910390fd5b600073ffffffffffffffffffffffffffffffffffffffff168273ffffffffffffffffffffffffffffffffffffffff1603610f615760006040517fec442f05000000000000000000000000000000000000000000000000000000008152600401610f589190611b14565b60405180910390fd5b610f6c8383836115ee565b505050565b600073ffffffffffffffffffffffffffffffffffffffff168273ffffffffffffffffffffffffffffffffffffffff1603610fe35760006040517f96c6fd1e000000000000000000000000000000000000000000000000000000008152600401610fda9190611b14565b60405180910390fd5b610fef826000836115ee565b5050565b610ffb610dcf565b73ffffffffffffffffffffffffffffffffffffffff166110196109ac565b73ffffffffffffffffffffffffffffffffffffffff16146110785761103c610dcf565b6040517f118cdaa700000000000000000000000000000000000000000000000000000000815260040161106f9190611b14565b60405180910390fd5b565b6000600560009054906101000a900473ffffffffffffffffffffffffffffffffffffffff16905081600560006101000a81548173ffffffffffffffffffffffffffffffffffffffff021916908373ffffffffffffffffffffffffffffffffffffffff1602179055508173ffffffffffffffffffffffffffffffffffffffff168173ffffffffffffffffffffffffffffffffffffffff167f8be0079c531659141344cd1fd0a4f28419497f9722a3daafe3b4186f6b6457e060405160405180910390a35050565b6000600d60009054906101000a900473ffffffffffffffffffffffffffffffffffffffff1673ffffffffffffffffffffffffffffffffffffffff1663171223dd73ffffffffffffffffffffffffffffffffffffffff60001b7feeeeeeeeeeeeeeeeeeeeeeeeeeeeeeeeeeeeeeeeeeeeeeeeeeeeeeeeeeeeeeee60001b166111c630611813565b6040518363ffffffff1660e01b81526004016111e3929190611df8565b6020604051808303816000875af1158015611202573d6000803e3d6000fd5b505050506040513d601f19601f820116820180604052508101906112269190611e36565b905061127530600e60009054906101000a900473ffffffffffffffffffffffffffffffffffffffff167fffffffffffffffffffffffffffffffffffffffffffffffffffffffffffffffff610dd7565b6000678ac7230489e8000060095461128d9190611d2e565b9050600e60009054906101000a900473ffffffffffffffffffffffffffffffffffffffff1673ffffffffffffffffffffffffffffffffffffffff16635a47ddc382306000804787600080307fffffffffffffffffffffffffffffffffffffffffffffffffffffffffffffffff6040518b63ffffffff1660e01b815260040161131d99989796959493929190611ea8565b60606040518083038185885af115801561133b573d6000803e3d6000fd5b50505050506040513d601f19601f820116820180604052508101906113609190611f4a565b505050600c60009054906101000a900473ffffffffffffffffffffffffffffffffffffffff1673ffffffffffffffffffffffffffffffffffffffff16634a7c974b836008546009546040518463ffffffff1660e01b81526004016113c693929190611d96565b600060405180830381600087803b1580156113e057600080fd5b505af11580156113f4573d6000803e3d6000fd5b505050506001600e60146101000a81548160ff0219169083151502179055505050565b600073ffffffffffffffffffffffffffffffffffffffff168473ffffffffffffffffffffffffffffffffffffffff16036114895760006040517fe602df050000000000000000000000000000000000000000000000000000000081526004016114809190611b14565b60405180910390fd5b600073ffffffffffffffffffffffffffffffffffffffff168373ffffffffffffffffffffffffffffffffffffffff16036114fb5760006040517f94280d620000000000000000000000000000000000000000000000000000000081526004016114f29190611b14565b60405180910390fd5b81600160008673ffffffffffffffffffffffffffffffffffffffff1673ffffffffffffffffffffffffffffffffffffffff16815260200190815260200160002060008573ffffffffffffffffffffffffffffffffffffffff1673ffffffffffffffffffffffffffffffffffffffff1681526020019081526020016000208190555080156115e8578273ffffffffffffffffffffffffffffffffffffffff168473ffffffffffffffffffffffffffffffffffffffff167f8c5be1e5ebec7d5bd14f71427d1e84f3dd0314c0f7b2291e5b200ac8c7c3b925846040516115df9190611a06565b60405180910390a35b50505050565b600073ffffffffffffffffffffffffffffffffffffffff168373ffffffffffffffffffffffffffffffffffffffff16036116405780600260008282546116349190611d62565b92505081905550611713565b60008060008573ffffffffffffffffffffffffffffffffffffffff1673ffffffffffffffffffffffffffffffffffffffff168152602001908152602001600020549050818110156116cc578381836040517fe450d38c0000000000000000000000000000000000000000000000000000000081526004016116c393929190611d96565b60405180910390fd5b8181036000808673ffffffffffffffffffffffffffffffffffffffff1673ffffffffffffffffffffffffffffffffffffffff16815260200190815260200160002081905550505b600073ffffffffffffffffffffffffffffffffffffffff168273ffffffffffffffffffffffffffffffffffffffff160361175c57806002600082825403925050819055506117a9565b806000808473ffffffffffffffffffffffffffffffffffffffff1673ffffffffffffffffffffffffffffffffffffffff168152602001908152602001600020600082825401925050819055505b8173ffffffffffffffffffffffffffffffffffffffff168373ffffffffffffffffffffffffffffffffffffffff167fddf252ad1be2c89b69c2b068fc378daa952ba7f163c4a11628f55a4df523b3ef836040516118069190611a06565b60405180910390a3505050565b60008173ffffffffffffffffffffffffffffffffffffffff1660001b9050919050565b600081519050919050565b600082825260208201905092915050565b60005b83811015611870578082015181840152602081019050611855565b60008484015250505050565b6000601f19601f8301169050919050565b600061189882611836565b6118a28185611841565b93506118b2818560208601611852565b6118bb8161187c565b840191505092915050565b600060208201905081810360008301526118e0818461188d565b905092915050565b600080fd5b600073ffffffffffffffffffffffffffffffffffffffff82169050919050565b6000611918826118ed565b9050919050565b6119288161190d565b811461193357600080fd5b50565b6000813590506119458161191f565b92915050565b6000819050919050565b61195e8161194b565b811461196957600080fd5b50565b60008135905061197b81611955565b92915050565b60008060408385031215611998576119976118e8565b5b60006119a685828601611936565b92505060206119b78582860161196c565b9150509250929050565b60008115159050919050565b6119d6816119c1565b82525050565b60006020820190506119f160008301846119cd565b92915050565b611a008161194b565b82525050565b6000602082019050611a1b60008301846119f7565b92915050565b600060208284031215611a3757611a366118e8565b5b6000611a458482850161196c565b91505092915050565b600080600060608486031215611a6757611a666118e8565b5b6000611a7586828701611936565b9350506020611a8686828701611936565b9250506040611a978682870161196c565b9150509250925092565b600060ff82169050919050565b611ab781611aa1565b82525050565b6000602082019050611ad26000830184611aae565b92915050565b600060208284031215611aee57611aed6118e8565b5b6000611afc84828501611936565b91505092915050565b611b0e8161190d565b82525050565b6000602082019050611b296000830184611b05565b92915050565b60008060408385031215611b4657611b456118e8565b5b6000611b5485828601611936565b9250506020611b6585828601611936565b9150509250929050565b7f4e487b7100000000000000000000000000000000000000000000000000000000600052602260045260246000fd5b60006002820490506001821680611bb657607f821691505b602082108103611bc957611bc8611b6f565b5b50919050565b7f4e487b7100000000000000000000000000000000000000000000000000000000600052601260045260246000fd5b7f496e76616c696420616d6f756e74000000000000000000000000000000000000600082015250565b6000611c34600e83611841565b9150611c3f82611bfe565b602082019050919050565b60006020820190508181036000830152611c6381611c27565b9050919050565b7f4c697175696469747920616c7265616479206465706c6f796564000000000000600082015250565b6000611ca0601a83611841565b9150611cab82611c6a565b602082019050919050565b60006020820190508181036000830152611ccf81611c93565b9050919050565b6000604082019050611ceb60008301856119f7565b611cf860208301846119f7565b9392505050565b7f4e487b7100000000000000000000000000000000000000000000000000000000600052601160045260246000fd5b6000611d398261194b565b9150611d448361194b565b9250828203905081811115611d5c57611d5b611cff565b5b92915050565b6000611d6d8261194b565b9150611d788361194b565b9250828201905080821115611d9057611d8f611cff565b5b92915050565b6000606082019050611dab6000830186611b05565b611db860208301856119f7565b611dc560408301846119f7565b949350505050565b6000819050919050565b6000611de282611dcd565b9050919050565b611df281611dd7565b82525050565b6000604082019050611e0d6000830185611de9565b611e1a6020830184611de9565b9392505050565b600081519050611e308161191f565b92915050565b600060208284031215611e4c57611e4b6118e8565b5b6000611e5a84828501611e21565b91505092915050565b6000819050919050565b6000819050919050565b6000611e92611e8d611e8884611e63565b611e6d565b61194b565b9050919050565b611ea281611e77565b82525050565b600061012082019050611ebe600083018c611b05565b611ecb602083018b611b05565b611ed8604083018a6119cd565b611ee560608301896119f7565b611ef260808301886119f7565b611eff60a0830187611e99565b611f0c60c0830186611e99565b611f1960e0830185611b05565b611f276101008301846119f7565b9a9950505050505050505050565b600081519050611f4481611955565b92915050565b600080600060608486031215611f6357611f626118e8565b5b6000611f7186828701611f35565b9350506020611f8286828701611f35565b9250506040611f9386828701611f35565b915050925092509256fea2646970667358221220d8d1fcec7b5338c6d29caaffe1a7fb3fdf58be9d4aaccff00efd5832af14809d64736f6c63430008180033a2646970667358221220c3bb6090f247f58bfdbac7e096c26ff98121f30a24b46aaf74220af7c31d267364736f6c63430008180033",
	"linkReferences": {},
	"deployedLinkReferences": {}
}